{
  "contractName": "RockPaperScissors",
  "abi": [
    {
      "inputs": [],
      "payable": true,
      "stateMutability": "payable",
      "type": "constructor"
    },
    {
      "anonymous": false,
      "inputs": [
        {
          "indexed": false,
          "internalType": "string",
          "name": "description",
          "type": "string"
        }
      ],
      "name": "LogNewProvableQuery",
      "type": "event"
    },
    {
      "anonymous": false,
      "inputs": [
        {
          "indexed": false,
          "internalType": "bytes32",
          "name": "queryId",
          "type": "bytes32"
        }
      ],
      "name": "LogQueryId",
      "type": "event"
    },
    {
      "anonymous": false,
      "inputs": [
        {
          "indexed": false,
          "internalType": "uint256",
          "name": "number",
          "type": "uint256"
        }
      ],
      "name": "LogRandomNumber",
      "type": "event"
    },
    {
      "anonymous": false,
      "inputs": [
        {
          "indexed": false,
          "internalType": "string",
          "name": "description",
          "type": "string"
        }
      ],
      "name": "ProvableQueryProofVerify",
      "type": "event"
    },
    {
      "anonymous": false,
      "inputs": [
        {
          "indexed": true,
          "internalType": "bytes32",
          "name": "myid",
          "type": "bytes32"
        },
        {
          "indexed": false,
          "internalType": "string",
          "name": "description",
          "type": "string"
        },
        {
          "indexed": false,
          "internalType": "bool",
          "name": "win",
          "type": "bool"
        },
        {
          "indexed": false,
          "internalType": "uint256",
          "name": "prize",
          "type": "uint256"
        }
      ],
      "name": "ResultOfTheGame",
      "type": "event"
    },
    {
      "constant": false,
      "inputs": [
        {
          "internalType": "uint256",
          "name": "mybet",
          "type": "uint256"
        }
      ],
      "name": "bet",
      "outputs": [],
      "payable": true,
      "stateMutability": "payable",
      "type": "function"
    },
    {
      "constant": false,
      "inputs": [
        {
          "internalType": "bytes32",
          "name": "_myid",
          "type": "bytes32"
        },
        {
          "internalType": "string",
          "name": "_result",
          "type": "string"
        }
      ],
      "name": "__callback",
      "outputs": [],
      "payable": false,
      "stateMutability": "nonpayable",
      "type": "function"
    },
    {
      "constant": false,
      "inputs": [
        {
          "internalType": "bytes32",
          "name": "_myid",
          "type": "bytes32"
        },
        {
          "internalType": "string",
          "name": "_result",
          "type": "string"
        },
        {
          "internalType": "bytes",
          "name": "_proof",
          "type": "bytes"
        }
      ],
      "name": "__callback",
      "outputs": [],
      "payable": false,
      "stateMutability": "nonpayable",
      "type": "function"
    },
    {
      "constant": false,
      "inputs": [
        {
          "internalType": "uint256",
          "name": "_newBet",
          "type": "uint256"
        }
      ],
      "name": "newBet",
      "outputs": [],
      "payable": false,
      "stateMutability": "nonpayable",
      "type": "function"
    },
    {
      "constant": false,
      "inputs": [],
      "name": "withdrawBalance",
      "outputs": [
        {
          "internalType": "uint256",
          "name": "",
          "type": "uint256"
        }
      ],
      "payable": false,
      "stateMutability": "nonpayable",
      "type": "function"
    },
    {
      "constant": false,
      "inputs": [],
      "name": "kill",
      "outputs": [],
      "payable": false,
      "stateMutability": "nonpayable",
      "type": "function"
    }
  ],
  "bytecode": "0x6080604052336000806101000a81548173ffffffffffffffffffffffffffffffffffffffff021916908373ffffffffffffffffffffffffffffffffffffffff16021790555062000059603060f81b6200005f60201b60201c565b62000a83565b600073ffffffffffffffffffffffffffffffffffffffff16600260009054906101000a900473ffffffffffffffffffffffffffffffffffffffff1673ffffffffffffffffffffffffffffffffffffffff161480620000ef57506000620000ed600260009054906101000a900473ffffffffffffffffffffffffffffffffffffffff16620003c560201b60201c565b145b156200010957620001076000620003d060201b60201c565b505b600260009054906101000a900473ffffffffffffffffffffffffffffffffffffffff1673ffffffffffffffffffffffffffffffffffffffff166338cc48316040518163ffffffff1660e01b8152600401602060405180830381600087803b1580156200017457600080fd5b505af115801562000189573d6000803e3d6000fd5b505050506040513d6020811015620001a057600080fd5b810190808051906020019092919050505073ffffffffffffffffffffffffffffffffffffffff16600160009054906101000a900473ffffffffffffffffffffffffffffffffffffffff1673ffffffffffffffffffffffffffffffffffffffff1614620002ef57600260009054906101000a900473ffffffffffffffffffffffffffffffffffffffff1673ffffffffffffffffffffffffffffffffffffffff166338cc48316040518163ffffffff1660e01b8152600401602060405180830381600087803b1580156200027157600080fd5b505af115801562000286573d6000803e3d6000fd5b505050506040513d60208110156200029d57600080fd5b8101908080519060200190929190505050600160006101000a81548173ffffffffffffffffffffffffffffffffffffffff021916908373ffffffffffffffffffffffffffffffffffffffff1602179055505b600160009054906101000a900473ffffffffffffffffffffffffffffffffffffffff1673ffffffffffffffffffffffffffffffffffffffff1663688dcfd7826040518263ffffffff1660e01b815260040180827effffffffffffffffffffffffffffffffffffffffffffffffffffffffffffff19167effffffffffffffffffffffffffffffffffffffffffffffffffffffffffffff19168152602001915050600060405180830381600087803b158015620003a957600080fd5b505af1158015620003be573d6000803e3d6000fd5b5050505050565b6000813b9050919050565b6000620003e2620003e960201b60201c565b9050919050565b60008062000411731d3b2638a7cc9f2cb3d298a3da7a90b67e5506ed620003c560201b60201c565b1115620004bd57731d3b2638a7cc9f2cb3d298a3da7a90b67e5506ed600260006101000a81548173ffffffffffffffffffffffffffffffffffffffff021916908373ffffffffffffffffffffffffffffffffffffffff160217905550620004b36040518060400160405280600b81526020017f6574685f6d61696e6e6574000000000000000000000000000000000000000000815250620009b860201b60201c565b60019050620009b5565b6000620004e473c03a2615d5efaf5f49f60b7bb6583eaec212fdf1620003c560201b60201c565b1115620005905773c03a2615d5efaf5f49f60b7bb6583eaec212fdf1600260006101000a81548173ffffffffffffffffffffffffffffffffffffffff021916908373ffffffffffffffffffffffffffffffffffffffff160217905550620005866040518060400160405280600c81526020017f6574685f726f707374656e330000000000000000000000000000000000000000815250620009b860201b60201c565b60019050620009b5565b6000620005b773b7a07bcf2ba2f2703b24c0691b5278999c59ac7e620003c560201b60201c565b1115620006635773b7a07bcf2ba2f2703b24c0691b5278999c59ac7e600260006101000a81548173ffffffffffffffffffffffffffffffffffffffff021916908373ffffffffffffffffffffffffffffffffffffffff160217905550620006596040518060400160405280600981526020017f6574685f6b6f76616e0000000000000000000000000000000000000000000000815250620009b860201b60201c565b60019050620009b5565b60006200068a73146500cfd35b22e4a392fe0adc06de1a1368ed48620003c560201b60201c565b1115620007365773146500cfd35b22e4a392fe0adc06de1a1368ed48600260006101000a81548173ffffffffffffffffffffffffffffffffffffffff021916908373ffffffffffffffffffffffffffffffffffffffff1602179055506200072c6040518060400160405280600b81526020017f6574685f72696e6b656279000000000000000000000000000000000000000000815250620009b860201b60201c565b60019050620009b5565b60006200075d73a2998efd205fb9d4b4963afb70778d6354ad3a41620003c560201b60201c565b1115620008095773a2998efd205fb9d4b4963afb70778d6354ad3a41600260006101000a81548173ffffffffffffffffffffffffffffffffffffffff021916908373ffffffffffffffffffffffffffffffffffffffff160217905550620007ff6040518060400160405280600a81526020017f6574685f676f65726c6900000000000000000000000000000000000000000000815250620009b860201b60201c565b60019050620009b5565b600062000830736f485c8bf6fc43ea212e93bbf8ce046c7f1cb475620003c560201b60201c565b11156200089657736f485c8bf6fc43ea212e93bbf8ce046c7f1cb475600260006101000a81548173ffffffffffffffffffffffffffffffffffffffff021916908373ffffffffffffffffffffffffffffffffffffffff16021790555060019050620009b5565b6000620008bd7320e12a1f859b3feae5fb2a0a32c18f5a65555bbf620003c560201b60201c565b111562000923577320e12a1f859b3feae5fb2a0a32c18f5a65555bbf600260006101000a81548173ffffffffffffffffffffffffffffffffffffffff021916908373ffffffffffffffffffffffffffffffffffffffff16021790555060019050620009b5565b60006200094a7351efaf4c8b3c9afbd5ab9f4bbc82784ab6ef8faa620003c560201b60201c565b1115620009b0577351efaf4c8b3c9afbd5ab9f4bbc82784ab6ef8faa600260006101000a81548173ffffffffffffffffffffffffffffffffffffffff021916908373ffffffffffffffffffffffffffffffffffffffff16021790555060019050620009b5565b600090505b90565b8060039080519060200190620009d0929190620009d4565b5050565b828054600181600116156101000203166002900490600052602060002090601f016020900481019282601f1062000a1757805160ff191683800117855562000a48565b8280016001018555821562000a48579182015b8281111562000a4757825182559160200191906001019062000a2a565b5b50905062000a57919062000a5b565b5090565b62000a8091905b8082111562000a7c57600081600090555060010162000a62565b5090565b90565b6142988062000a936000396000f3fe6080604052600436106100555760003560e01c80630d3888c61461005a57806327dc297e1461009557806338bbfa501461016757806341c0e1b5146102d05780635fd8c710146102e75780637365870b14610312575b600080fd5b34801561006657600080fd5b506100936004803603602081101561007d57600080fd5b8101908080359060200190929190505050610340565b005b3480156100a157600080fd5b50610165600480360360408110156100b857600080fd5b8101908080359060200190929190803590602001906401000000008111156100df57600080fd5b8201836020820111156100f157600080fd5b8035906020019184600183028401116401000000008311171561011357600080fd5b91908080601f016020809104026020016040519081016040528093929190818152602001838380828437600081840152601f19601f820116905080830192505050505050509192919290505050610400565b005b34801561017357600080fd5b506102ce6004803603606081101561018a57600080fd5b8101908080359060200190929190803590602001906401000000008111156101b157600080fd5b8201836020820111156101c357600080fd5b803590602001918460018302840111640100000000831117156101e557600080fd5b91908080601f016020809104026020016040519081016040528093929190818152602001838380828437600081840152601f19601f8201169050808301925050505050505091929192908035906020019064010000000081111561024857600080fd5b82018360208201111561025a57600080fd5b8035906020019184600183028401116401000000008311171561027c57600080fd5b91908080601f016020809104026020016040519081016040528093929190818152602001838380828437600081840152601f19601f820116905080830192505050505050509192919290505050610443565b005b3480156102dc57600080fd5b506102e5610671565b005b3480156102f357600080fd5b506102fc6106e3565b6040518082815260200191505060405180910390f35b61033e6004803603602081101561032857600080fd5b810190808035906020019092919050505061092f565b005b60011515600860003373ffffffffffffffffffffffffffffffffffffffff1673ffffffffffffffffffffffffffffffffffffffff16815260200190815260200160002060009054906101000a900460ff1615151461039d57600080fd5b6103fd338260066000600760003373ffffffffffffffffffffffffffffffffffffffff1673ffffffffffffffffffffffffffffffffffffffff16815260200190815260200160002054815260200190815260200160002060030154610b89565b50565b61043f828260006040519080825280601f01601f1916602001820160405280156104395781602001600182028038833980820191505090505b50610443565b5050565b61044b610cf1565b73ffffffffffffffffffffffffffffffffffffffff163373ffffffffffffffffffffffffffffffffffffffff161461048257600080fd5b600115156009600085815260200190815260200160002060009054906101000a900460ff161515146104b357600080fd5b60006104c0848484611011565b60ff16146105a6577fc45a5dff3ba756b8c4d8704e66fafa0109698d3d0e4137d959197ef82d714a936040518080602001828103825260228152602001806141836022913960400191505060405180910390a16000600860006006600087815260200190815260200160002060000160009054906101000a900473ffffffffffffffffffffffffffffffffffffffff1673ffffffffffffffffffffffffffffffffffffffff1673ffffffffffffffffffffffffffffffffffffffff16815260200190815260200160002060006101000a81548160ff02191690831515021790555061066c565b60006003836040516020018082805190602001908083835b602083106105e157805182526020820191506020810190506020830392506105be565b6001836020036101000a0380198251168184511680821785525050505050509050019150506040516020818303038152906040528051906020012060001c8161062657fe5b0690506106338482611141565b7f4034cea00588331775106b3bb0531716336a0091d3134d70f70abc1208b4070b816040518082815260200191505060405180910390a1505b505050565b6000809054906101000a900473ffffffffffffffffffffffffffffffffffffffff1673ffffffffffffffffffffffffffffffffffffffff163373ffffffffffffffffffffffffffffffffffffffff16146106ca57600080fd5b3373ffffffffffffffffffffffffffffffffffffffff16ff5b600060011515600a60003373ffffffffffffffffffffffffffffffffffffffff1673ffffffffffffffffffffffffffffffffffffffff16815260200190815260200160002060009054906101000a900460ff1615151461074257600080fd5b600060066000600760003373ffffffffffffffffffffffffffffffffffffffff1673ffffffffffffffffffffffffffffffffffffffff168152602001908152602001600020548152602001908152602001600020600301546002029050600a60003373ffffffffffffffffffffffffffffffffffffffff1673ffffffffffffffffffffffffffffffffffffffff16815260200190815260200160002060006101000a81549060ff021916905560066000600760003373ffffffffffffffffffffffffffffffffffffffff1673ffffffffffffffffffffffffffffffffffffffff168152602001908152602001600020548152602001908152602001600020600080820160006101000a81549073ffffffffffffffffffffffffffffffffffffffff021916905560018201600090556002820160009055600382016000905550503373ffffffffffffffffffffffffffffffffffffffff166108fc829081150290604051600060405180830381858888f193505050501580156108c8573d6000803e3d6000fd5b50600060066000600760003373ffffffffffffffffffffffffffffffffffffffff1673ffffffffffffffffffffffffffffffffffffffff168152602001908152602001600020548152602001908152602001600020600301541461092857fe5b8091505090565b67016345785d8a0000341015610990576040517f08c379a00000000000000000000000000000000000000000000000000000000081526004018080602001828103825260218152602001806142436021913960400191505060405180910390fd5b3073ffffffffffffffffffffffffffffffffffffffff1631341115610a00576040517f08c379a00000000000000000000000000000000000000000000000000000000081526004018080602001828103825260288152602001806141a56028913960400191505060405180910390fd5b60001515600860003373ffffffffffffffffffffffffffffffffffffffff1673ffffffffffffffffffffffffffffffffffffffff16815260200190815260200160002060009054906101000a900460ff16151514610a5d57600080fd5b60001515600a60003373ffffffffffffffffffffffffffffffffffffffff1673ffffffffffffffffffffffffffffffffffffffff16815260200190815260200160002060009054906101000a900460ff16151514610b23576040517f08c379a000000000000000000000000000000000000000000000000000000000815260040180806020018281038252601c8152602001807f70726576696f7573207072697a65206e6f742077697468647261776e0000000081525060200191505060405180910390fd5b6001600860003373ffffffffffffffffffffffffffffffffffffffff1673ffffffffffffffffffffffffffffffffffffffff16815260200190815260200160002060006101000a81548160ff021916908315150217905550610b86338234610b89565b50565b6000610b93611604565b9050610b9d61405b565b84816000019073ffffffffffffffffffffffffffffffffffffffff16908173ffffffffffffffffffffffffffffffffffffffff1681525050818160200181815250508381604001818152505082816060018181525050806006600084815260200190815260200160002060008201518160000160006101000a81548173ffffffffffffffffffffffffffffffffffffffff021916908373ffffffffffffffffffffffffffffffffffffffff16021790555060208201518160010155604082015181600201556060820151816003015590505081600760008773ffffffffffffffffffffffffffffffffffffffff1673ffffffffffffffffffffffffffffffffffffffff168152602001908152602001600020819055507fba5c08e7ca16d504b0119b4b9e09b27a571d73bf338d327cfbbe54b0b55ff88d826040518082815260200191505060405180910390a15050505050565b60008073ffffffffffffffffffffffffffffffffffffffff16600260009054906101000a900473ffffffffffffffffffffffffffffffffffffffff1673ffffffffffffffffffffffffffffffffffffffff161480610d7957506000610d77600260009054906101000a900473ffffffffffffffffffffffffffffffffffffffff166116a3565b145b15610d8a57610d8860006116ae565b505b600260009054906101000a900473ffffffffffffffffffffffffffffffffffffffff1673ffffffffffffffffffffffffffffffffffffffff166338cc48316040518163ffffffff1660e01b8152600401602060405180830381600087803b158015610df457600080fd5b505af1158015610e08573d6000803e3d6000fd5b505050506040513d6020811015610e1e57600080fd5b810190808051906020019092919050505073ffffffffffffffffffffffffffffffffffffffff16600160009054906101000a900473ffffffffffffffffffffffffffffffffffffffff1673ffffffffffffffffffffffffffffffffffffffff1614610f6957600260009054906101000a900473ffffffffffffffffffffffffffffffffffffffff1673ffffffffffffffffffffffffffffffffffffffff166338cc48316040518163ffffffff1660e01b8152600401602060405180830381600087803b158015610eed57600080fd5b505af1158015610f01573d6000803e3d6000fd5b505050506040513d6020811015610f1757600080fd5b8101908080519060200190929190505050600160006101000a81548173ffffffffffffffffffffffffffffffffffffffff021916908373ffffffffffffffffffffffffffffffffffffffff1602179055505b600160009054906101000a900473ffffffffffffffffffffffffffffffffffffffff1673ffffffffffffffffffffffffffffffffffffffff1663c281d19e6040518163ffffffff1660e01b815260040160206040518083038186803b158015610fd157600080fd5b505afa158015610fe5573d6000803e3d6000fd5b505050506040513d6020811015610ffb57600080fd5b8101908080519060200190929190505050905090565b60007f4c000000000000000000000000000000000000000000000000000000000000008260008151811061104157fe5b602001015160f81c60f81b7effffffffffffffffffffffffffffffffffffffffffffffffffffffffffffff19161415806110d457507f5000000000000000000000000000000000000000000000000000000000000000826001815181106110a457fe5b602001015160f81c60f81b7effffffffffffffffffffffffffffffffffffffffffffffffffffffffffffff191614155b806111005750600160ff16826002815181106110ec57fe5b602001015160f81c60f81b60f81c60ff1614155b1561110e576001905061113a565b600061112383868661111e6116bf565b611761565b90508061113457600291505061113a565b60009150505b9392505050565b600060066000848152602001908152602001600020600201541480156111675750600281145b806111945750600160066000848152602001908152602001600020600201541480156111935750600081145b5b806111c15750600260066000848152602001908152602001600020600201541480156111c05750600181145b5b1561137b576000600660008481526020019081526020016000206003015460020290506001600a60006006600087815260200190815260200160002060000160009054906101000a900473ffffffffffffffffffffffffffffffffffffffff1673ffffffffffffffffffffffffffffffffffffffff1673ffffffffffffffffffffffffffffffffffffffff16815260200190815260200160002060006101000a81548160ff021916908315150217905550600860006006600086815260200190815260200160002060000160009054906101000a900473ffffffffffffffffffffffffffffffffffffffff1673ffffffffffffffffffffffffffffffffffffffff1673ffffffffffffffffffffffffffffffffffffffff16815260200190815260200160002060006101000a81549060ff0219169055827fd9408e3bd81f175726045630b32722a7624ed5a66f4cab78e49224b8713dbc3b600183604051808060200184151515158152602001838152602001828103825260038152602001807f776f6e0000000000000000000000000000000000000000000000000000000000815250602001935050505060405180910390a2506115dd565b600060066000848152602001908152602001600020600201541480156113a15750600181145b806113ce5750600160066000848152602001908152602001600020600201541480156113cd5750600281145b5b806113fb5750600260066000848152602001908152602001600020600201541480156113fa5750600081145b5b1561155d57600860006006600085815260200190815260200160002060000160009054906101000a900473ffffffffffffffffffffffffffffffffffffffff1673ffffffffffffffffffffffffffffffffffffffff1673ffffffffffffffffffffffffffffffffffffffff16815260200190815260200160002060006101000a81549060ff021916905560066000838152602001908152602001600020600080820160006101000a81549073ffffffffffffffffffffffffffffffffffffffff02191690556001820160009055600282016000905560038201600090555050817fd9408e3bd81f175726045630b32722a7624ed5a66f4cab78e49224b8713dbc3b600080604051808060200184151515158152602001838152602001828103825260048152602001807f6c6f737400000000000000000000000000000000000000000000000000000000815250602001935050505060405180910390a26115dc565b817fd9408e3bd81f175726045630b32722a7624ed5a66f4cab78e49224b8713dbc3b600080604051808060200184151515158152602001838152602001828103825260048152602001807f6472617700000000000000000000000000000000000000000000000000000000815250602001935050505060405180910390a25b5b6009600083815260200190815260200160002060006101000a81549060ff02191690555050565b60008060009050600062030d409050600061162183600184611e0c565b905060016009600083815260200190815260200160002060006101000a81548160ff0219169083151502179055507fc4dc360d0a9c0677a3379ae0a3d81e887f761e65fdf3d7e00859d1bcd3c4738960405180806020018281038252603681526020018061420d6036913960400191505060405180910390a180935050505090565b6000813b9050919050565b60006116b86123a7565b9050919050565b606060038054600181600116156101000203166002900480601f0160208091040260200160405190810160405280929190818152602001828054600181600116156101000203166002900480156117575780601f1061172c57610100808354040283529160200191611757565b820191906000526020600020905b81548152906001019060200180831161173a57829003601f168201915b5050505050905090565b600080602060028760458151811061177557fe5b602001015160f81c60f81b60f81c60ff1601604401019050606060206040519080825280601f01601f1916602001820160405280156117c35781602001600182028038833980820191505090505b5090506117d5878360208460006128fe565b50600284876040516020018083805190602001908083835b6020831061181057805182526020820191506020810190506020830392506117ed565b6001836020036101000a038019825116818451168082178552505050505050905001828152602001925050506040516020818303038152906040526040518082805190602001908083835b6020831061187e578051825260208201915060208101905060208303925061185b565b6001836020036101000a038019825116818451168082178552505050505050905001915050602060405180830381855afa1580156118c0573d6000803e3d6000fd5b5050506040513d60208110156118d557600080fd5b8101908080519060200190929190505050604051602001808281526020019150506040516020818303038152906040528051906020012081805190602001201461192457600092505050611e04565b6060600288600160498601018151811061193a57fe5b602001015160f81c60f81b60f81c60ff16016040519080825280601f01601f19166020018201604052801561197e5781602001600182028038833980820191505090505b509050611993886049850183518460006128fe565b50611a5e6002826040518082805190602001908083835b602083106119cd57805182526020820191506020810190506020830392506119aa565b6001836020036101000a038019825116818451168082178552505050505050905001915050602060405180830381855afa158015611a0f573d6000803e3d6000fd5b5050506040513d6020811015611a2457600080fd5b8101908080519060200190929190505050878a6008602088010181518110611a4857fe5b602001015160f81c60f81b60f81c60ff1661295d565b611a6e5760009350505050611e04565b606060296040519080825280601f01601f191660200182016040528015611aa45781602001600182028038833980820191505090505b509050611ab9896020860160298460006128fe565b506060604080519080825280601f01601f191660200182016040528015611aef5781602001600182028038833980820191505090505b5090506000604184516029602089010101019050611b158b6040830360408560006128fe565b5060006002836040518082805190602001908083835b60208310611b4e5780518252602082019150602081019050602083039250611b2b565b6001836020036101000a038019825116818451168082178552505050505050905001915050602060405180830381855afa158015611b90573d6000803e3d6000fd5b5050506040513d6020811015611ba557600080fd5b8101908080519060200190929190505050905083816040516020018083805190602001908083835b60208310611bf05780518252602082019150602081019050602083039250611bcd565b6001836020036101000a0380198251168184511680821785525050505050509050018281526020019250505060405160208183030381529060405280519060200120600460008d8152602001908152602001600020541415611c6857600460008c815260200190815260200160002060009055611c78565b6000975050505050505050611e04565b606060496040519080825280601f01601f191660200182016040528015611cae5781602001600182028038833980820191505090505b509050611cc08d8960498460006128fe565b50611d696002826040518082805190602001908083835b60208310611cfa5780518252602082019150602081019050602083039250611cd7565b6001836020036101000a038019825116818451168082178552505050505050905001915050602060405180830381855afa158015611d3c573d6000803e3d6000fd5b5050506040513d6020811015611d5157600080fd5b81019080805190602001909291905050508786612a0d565b611d7e57600098505050505050505050611e04565b6005600083815260200190815260200160002060009054906101000a900460ff16611dd857611dad8d84612bcb565b6005600084815260200190815260200160002060006101000a81548160ff0219169083151502179055505b6005600083815260200190815260200160002060009054906101000a900460ff16985050505050505050505b949350505050565b60008083118015611e1e575060208311155b611e2757600080fd5b600a84029350606060016040519080825280601f01601f191660200182016040528015611e635781602001600182028038833980820191505090505b5090508360f81b81600081518110611e7757fe5b60200101907effffffffffffffffffffffffffffffffffffffffffffffffffffffffffffff1916908160001a905350606060206040519080825280601f01601f191660200182016040528015611edc5781602001600182028038833980820191505090505b509050606060206040519080825280601f01601f191660200182016040528015611f155781602001600182028038833980820191505090505b5090506000611f22612fe3565b905060208352424118600143034018602084015260208252806020830152606060206040519080825280601f01601f191660200182016040528015611f765781602001600182028038833980820191505090505b509050886020820152606060086040519080825280601f01601f191660200182016040528015611fb55781602001600182028038833980820191505090505b509050611fc882601860088460006128fe565b50611fd161409c565b604051806080016040528087815260200188815260200186815260200184815250905060006120366040518060400160405280600681526020017f72616e646f6d0000000000000000000000000000000000000000000000000000815250838c613303565b9050606060086040519080825280601f01601f19166020018201604052801561206e5781602001600182028038833980820191505090505b50905060208401517f0100000000000000000000000000000000000000000000000000000000000000810460278301537e01000000000000000000000000000000000000000000000000000000000000810460268301537d010000000000000000000000000000000000000000000000000000000000810460258301537c0100000000000000000000000000000000000000000000000000000000810460248301537b01000000000000000000000000000000000000000000000000000000810460238301537a0100000000000000000000000000000000000000000000000000008104602283015379010000000000000000000000000000000000000000000000000081046021830153780100000000000000000000000000000000000000000000000081046020830153506123948282856001600481106121ad57fe5b60200201516002876000600481106121c157fe5b60200201516040518082805190602001908083835b602083106121f957805182526020820191506020810190506020830392506121d6565b6001836020036101000a038019825116818451168082178552505050505050905001915050602060405180830381855afa15801561223b573d6000803e3d6000fd5b5050506040513d602081101561225057600080fd5b81019080805190602001909291905050508760026004811061226e57fe5b60200201516040516020018085805190602001908083835b602083106122a95780518252602082019150602081019050602083039250612286565b6001836020036101000a03801982511681845116808217855250505050505090500184805190602001908083835b602083106122fa57805182526020820191506020810190506020830392506122d7565b6001836020036101000a03801982511681845116808217855250505050505090500183815260200182805190602001908083835b60208310612351578051825260208201915060208101905060208303925061232e565b6001836020036101000a03801982511681845116808217855250505050505090500194505050505060405160208183030381529060405280519060200120613672565b8199505050505050505050509392505050565b6000806123c7731d3b2638a7cc9f2cb3d298a3da7a90b67e5506ed6116a3565b111561246957731d3b2638a7cc9f2cb3d298a3da7a90b67e5506ed600260006101000a81548173ffffffffffffffffffffffffffffffffffffffff021916908373ffffffffffffffffffffffffffffffffffffffff1602179055506124606040518060400160405280600b81526020017f6574685f6d61696e6e657400000000000000000000000000000000000000000081525061368e565b600190506128fb565b600061248873c03a2615d5efaf5f49f60b7bb6583eaec212fdf16116a3565b111561252a5773c03a2615d5efaf5f49f60b7bb6583eaec212fdf1600260006101000a81548173ffffffffffffffffffffffffffffffffffffffff021916908373ffffffffffffffffffffffffffffffffffffffff1602179055506125216040518060400160405280600c81526020017f6574685f726f707374656e33000000000000000000000000000000000000000081525061368e565b600190506128fb565b600061254973b7a07bcf2ba2f2703b24c0691b5278999c59ac7e6116a3565b11156125eb5773b7a07bcf2ba2f2703b24c0691b5278999c59ac7e600260006101000a81548173ffffffffffffffffffffffffffffffffffffffff021916908373ffffffffffffffffffffffffffffffffffffffff1602179055506125e26040518060400160405280600981526020017f6574685f6b6f76616e000000000000000000000000000000000000000000000081525061368e565b600190506128fb565b600061260a73146500cfd35b22e4a392fe0adc06de1a1368ed486116a3565b11156126ac5773146500cfd35b22e4a392fe0adc06de1a1368ed48600260006101000a81548173ffffffffffffffffffffffffffffffffffffffff021916908373ffffffffffffffffffffffffffffffffffffffff1602179055506126a36040518060400160405280600b81526020017f6574685f72696e6b65627900000000000000000000000000000000000000000081525061368e565b600190506128fb565b60006126cb73a2998efd205fb9d4b4963afb70778d6354ad3a416116a3565b111561276d5773a2998efd205fb9d4b4963afb70778d6354ad3a41600260006101000a81548173ffffffffffffffffffffffffffffffffffffffff021916908373ffffffffffffffffffffffffffffffffffffffff1602179055506127646040518060400160405280600a81526020017f6574685f676f65726c690000000000000000000000000000000000000000000081525061368e565b600190506128fb565b600061278c736f485c8bf6fc43ea212e93bbf8ce046c7f1cb4756116a3565b11156127f057736f485c8bf6fc43ea212e93bbf8ce046c7f1cb475600260006101000a81548173ffffffffffffffffffffffffffffffffffffffff021916908373ffffffffffffffffffffffffffffffffffffffff160217905550600190506128fb565b600061280f7320e12a1f859b3feae5fb2a0a32c18f5a65555bbf6116a3565b1115612873577320e12a1f859b3feae5fb2a0a32c18f5a65555bbf600260006101000a81548173ffffffffffffffffffffffffffffffffffffffff021916908373ffffffffffffffffffffffffffffffffffffffff160217905550600190506128fb565b60006128927351efaf4c8b3c9afbd5ab9f4bbc82784ab6ef8faa6116a3565b11156128f6577351efaf4c8b3c9afbd5ab9f4bbc82784ab6ef8faa600260006101000a81548173ffffffffffffffffffffffffffffffffffffffff021916908373ffffffffffffffffffffffffffffffffffffffff160217905550600190506128fb565b600090505b90565b606060008285019050808451101561291557600080fd5b600086602001905060008460200190505b86886020010182101561294e5781890151808288015250602082019150602081019050612926565b85935050505095945050505050565b600080600190508284511461297157600080fd5b60008090505b83811015612a015784818151811061298b57fe5b602001015160f81c60f81b7effffffffffffffffffffffffffffffffffffffffffffffffffffffffffffff19168682602081106129c457fe5b1a60f81b7effffffffffffffffffffffffffffffffffffffffffffffffffffffffffffff1916146129f457600091505b8080600101915050612977565b50809150509392505050565b6000806000806000606060206040519080825280601f01601f191660200182016040528015612a4b5781602001600182028038833980820191505090505b5090506000602089600381518110612a5f57fe5b602001015160f81c60f81b60f81c60ff16036004019050612a85898260208560006128fe565b9150606060206040519080825280601f01601f191660200182016040528015612abd5781602001600182028038833980820191505090505b509050602282019150612af98a60208c6001860381518110612adb57fe5b602001015160f81c60f81b60f81c60ff1603840160208460006128fe565b90506020830151945060208101519350612b168b601b87876136a8565b80975081985050508573ffffffffffffffffffffffffffffffffffffffff16898051906020012060001c73ffffffffffffffffffffffffffffffffffffffff161415612b6c576001975050505050505050612bc4565b612b798b601c87876136a8565b80975081985050508573ffffffffffffffffffffffffffffffffffffffff16898051906020012060001c73ffffffffffffffffffffffffffffffffffffffff16149750505050505050505b9392505050565b60008060606002856001860181518110612be157fe5b602001015160f81c60f81b60f81c60ff16016040519080825280601f01601f191660200182016040528015612c255781602001600182028038833980820191505090505b509050612c37858583518460006128fe565b506060604080519080825280601f01601f191660200182016040528015612c6d5781602001600182028038833980820191505090505b509050612c8086600460408460006128fe565b50606060626040519080825280601f01601f191660200182016040528015612cb75781602001600182028038833980820191505090505b509050600160f81b81600081518110612ccc57fe5b60200101907effffffffffffffffffffffffffffffffffffffffffffffffffffffffffffff1916908160001a905350612d0d876041880360418460016128fe565b5060606040518060400160405280602081526020017ffd94fa71bc0ba10d39d464d0d8f465efeef0a2764e3887fcc9df41ded20f505c8152509050612d5881600060208560426128fe565b50612e016002836040518082805190602001908083835b60208310612d925780518252602082019150602081019050602083039250612d6f565b6001836020036101000a038019825116818451168082178552505050505050905001915050602060405180830381855afa158015612dd4573d6000803e3d6000fd5b5050506040513d6020811015612de957600080fd5b81019080805190602001909291905050508585612a0d565b945084612e1657600095505050505050612fdd565b60606040518060600160405280604081526020016141cd604091399050606060426040519080825280601f01601f191660200182016040528015612e695781602001600182028038833980820191505090505b50905060fe60f81b81600081518110612e7e57fe5b60200101907effffffffffffffffffffffffffffffffffffffffffffffffffffffffffffff1916908160001a905350612ebd8a600360418460016128fe565b50606060028b604581518110612ecf57fe5b602001015160f81c60f81b60f81c60ff16016040519080825280601f01601f191660200182016040528015612f135781602001600182028038833980820191505090505b509050612f268b604483518460006128fe565b50612fcf6002836040518082805190602001908083835b60208310612f605780518252602082019150602081019050602083039250612f3d565b6001836020036101000a038019825116818451168082178552505050505050905001915050602060405180830381855afa158015612fa2573d6000803e3d6000fd5b5050506040513d6020811015612fb757600080fd5b81019080805190602001909291905050508285612a0d565b975087985050505050505050505b92915050565b60008073ffffffffffffffffffffffffffffffffffffffff16600260009054906101000a900473ffffffffffffffffffffffffffffffffffffffff1673ffffffffffffffffffffffffffffffffffffffff16148061306b57506000613069600260009054906101000a900473ffffffffffffffffffffffffffffffffffffffff166116a3565b145b1561307c5761307a60006116ae565b505b600260009054906101000a900473ffffffffffffffffffffffffffffffffffffffff1673ffffffffffffffffffffffffffffffffffffffff166338cc48316040518163ffffffff1660e01b8152600401602060405180830381600087803b1580156130e657600080fd5b505af11580156130fa573d6000803e3d6000fd5b505050506040513d602081101561311057600080fd5b810190808051906020019092919050505073ffffffffffffffffffffffffffffffffffffffff16600160009054906101000a900473ffffffffffffffffffffffffffffffffffffffff1673ffffffffffffffffffffffffffffffffffffffff161461325b57600260009054906101000a900473ffffffffffffffffffffffffffffffffffffffff1673ffffffffffffffffffffffffffffffffffffffff166338cc48316040518163ffffffff1660e01b8152600401602060405180830381600087803b1580156131df57600080fd5b505af11580156131f3573d6000803e3d6000fd5b505050506040513d602081101561320957600080fd5b8101908080519060200190929190505050600160006101000a81548173ffffffffffffffffffffffffffffffffffffffff021916908373ffffffffffffffffffffffffffffffffffffffff1602179055505b600160009054906101000a900473ffffffffffffffffffffffffffffffffffffffff1673ffffffffffffffffffffffffffffffffffffffff1663abaa5f3e6040518163ffffffff1660e01b815260040160206040518083038186803b1580156132c357600080fd5b505afa1580156132d7573d6000803e3d6000fd5b505050506040513d60208110156132ed57600080fd5b8101908080519060200190929190505050905090565b60008073ffffffffffffffffffffffffffffffffffffffff16600260009054906101000a900473ffffffffffffffffffffffffffffffffffffffff1673ffffffffffffffffffffffffffffffffffffffff16148061338b57506000613389600260009054906101000a900473ffffffffffffffffffffffffffffffffffffffff166116a3565b145b1561339c5761339a60006116ae565b505b600260009054906101000a900473ffffffffffffffffffffffffffffffffffffffff1673ffffffffffffffffffffffffffffffffffffffff166338cc48316040518163ffffffff1660e01b8152600401602060405180830381600087803b15801561340657600080fd5b505af115801561341a573d6000803e3d6000fd5b505050506040513d602081101561343057600080fd5b810190808051906020019092919050505073ffffffffffffffffffffffffffffffffffffffff16600160009054906101000a900473ffffffffffffffffffffffffffffffffffffffff1673ffffffffffffffffffffffffffffffffffffffff161461357b57600260009054906101000a900473ffffffffffffffffffffffffffffffffffffffff1673ffffffffffffffffffffffffffffffffffffffff166338cc48316040518163ffffffff1660e01b8152600401602060405180830381600087803b1580156134ff57600080fd5b505af1158015613513573d6000803e3d6000fd5b505050506040513d602081101561352957600080fd5b8101908080519060200190929190505050600160006101000a81548173ffffffffffffffffffffffffffffffffffffffff021916908373ffffffffffffffffffffffffffffffffffffffff1602179055505b606060046040519080825280602002602001820160405280156135b257816020015b606081526020019060019003908161359d5790505b509050836000600481106135c257fe5b6020020151816000815181106135d457fe5b6020026020010181905250836001600481106135ec57fe5b6020020151816001815181106135fe57fe5b60200260200101819052508360026004811061361657fe5b60200201518160028151811061362857fe5b60200260200101819052508360036004811061364057fe5b60200201518160038151811061365257fe5b60200260200101819052506136688582856136ec565b9150509392505050565b8060046000848152602001908152602001600020819055505050565b80600390805190602001906136a49291906140c3565b5050565b60008060008060405188815287602082015286604082015285606082015260208160808360006001610bb8f192508051915050818193509350505094509492505050565b60008073ffffffffffffffffffffffffffffffffffffffff16600260009054906101000a900473ffffffffffffffffffffffffffffffffffffffff1673ffffffffffffffffffffffffffffffffffffffff16148061377457506000613772600260009054906101000a900473ffffffffffffffffffffffffffffffffffffffff166116a3565b145b156137855761378360006116ae565b505b600260009054906101000a900473ffffffffffffffffffffffffffffffffffffffff1673ffffffffffffffffffffffffffffffffffffffff166338cc48316040518163ffffffff1660e01b8152600401602060405180830381600087803b1580156137ef57600080fd5b505af1158015613803573d6000803e3d6000fd5b505050506040513d602081101561381957600080fd5b810190808051906020019092919050505073ffffffffffffffffffffffffffffffffffffffff16600160009054906101000a900473ffffffffffffffffffffffffffffffffffffffff1673ffffffffffffffffffffffffffffffffffffffff161461396457600260009054906101000a900473ffffffffffffffffffffffffffffffffffffffff1673ffffffffffffffffffffffffffffffffffffffff166338cc48316040518163ffffffff1660e01b8152600401602060405180830381600087803b1580156138e857600080fd5b505af11580156138fc573d6000803e3d6000fd5b505050506040513d602081101561391257600080fd5b8101908080519060200190929190505050600160006101000a81548173ffffffffffffffffffffffffffffffffffffffff021916908373ffffffffffffffffffffffffffffffffffffffff1602179055505b6000600160009054906101000a900473ffffffffffffffffffffffffffffffffffffffff1673ffffffffffffffffffffffffffffffffffffffff16632ef3accc86856040518363ffffffff1660e01b81526004018080602001838152602001828103825284818151815260200191508051906020019080838360005b838110156139fb5780820151818401526020810190506139e0565b50505050905090810190601f168015613a285780820380516001836020036101000a031916815260200191505b509350505050602060405180830381600087803b158015613a4857600080fd5b505af1158015613a5c573d6000803e3d6000fd5b505050506040513d6020811015613a7257600080fd5b81019080805190602001909291905050509050823a02670de0b6b3a764000001811115613aa5576000801b915050613c4b565b6060613ab085613c52565b9050600160009054906101000a900473ffffffffffffffffffffffffffffffffffffffff1673ffffffffffffffffffffffffffffffffffffffff1663c55c1cb68360008985896040518663ffffffff1660e01b8152600401808581526020018060200180602001848152602001838103835286818151815260200191508051906020019080838360005b83811015613b55578082015181840152602081019050613b3a565b50505050905090810190601f168015613b825780820380516001836020036101000a031916815260200191505b50838103825285818151815260200191508051906020019080838360005b83811015613bbb578082015181840152602081019050613ba0565b50505050905090810190601f168015613be85780820380516001836020036101000a031916815260200191505b5096505050505050506020604051808303818588803b158015613c0a57600080fd5b505af1158015613c1e573d6000803e3d6000fd5b50505050506040513d6020811015613c3557600080fd5b8101908080519060200190929190505050925050505b9392505050565b6060613c5c613cd2565b613c64614143565b613c7081610400613cde565b613c7981613d28565b60008090505b8351811015613cbb57613cae848281518110613c9757fe5b602002602001015183613d3690919063ffffffff16565b8080600101915050613c7f565b50613cc581613d5b565b8060000151915050919050565b60405180590338823950565b6000819050600060208281613cef57fe5b0614613d085760208181613cff57fe5b06602003810190505b808360200181815250506040518084526000815281810160405250505050565b613d33816004613d69565b50565b613d438260028351613d8a565b613d568183613eca90919063ffffffff16565b505050565b613d66816007613d69565b50565b613d86601f60058360ff16901b1783613f7590919063ffffffff16565b5050565b60178111613db657613db18160058460ff16901b60ff161784613f7590919063ffffffff16565b613ec5565b60ff8111613df757613ddb601860058460ff16901b1784613f7590919063ffffffff16565b613df181600185613fb59092919063ffffffff16565b50613ec4565b61ffff8111613e3957613e1d601960058460ff16901b1784613f7590919063ffffffff16565b613e3381600285613fb59092919063ffffffff16565b50613ec3565b63ffffffff8111613e7d57613e61601a60058460ff16901b1784613f7590919063ffffffff16565b613e7781600485613fb59092919063ffffffff16565b50613ec2565b67ffffffffffffffff8111613ec157613ea9601b60058460ff16901b1784613f7590919063ffffffff16565b613ebf81600885613fb59092919063ffffffff16565b505b5b5b5b5b505050565b613ed2614143565b82602001518360000151518351011115613f0257613f01836002613efb8660200151865161401c565b02614038565b5b60008060008451905085518051602081830101945086518101825260208701935050505b60208110613f495781518352602083019250602082019150602081039050613f26565b60006001826020036101000a039050801983511681855116818117865250508694505050505092915050565b81602001516001836000015151011115613f9b57613f9a826002846020015102614038565b5b815180516020818301018381536001820183525050505050565b613fbd614143565b836020015184600001515183011115613feb57613fea846002613fe487602001518661401c565b02614038565b5b60006001836101000a0390508451805184818301018684198251161781528582018352505050849150509392505050565b60008183111561402e57829050614032565b8190505b92915050565b60608260000151905061404b8383613cde565b6140558382613eca565b50505050565b6040518060800160405280600073ffffffffffffffffffffffffffffffffffffffff1681526020016000801916815260200160008152602001600081525090565b60405180608001604052806004905b60608152602001906001900390816140ab5790505090565b828054600181600116156101000203166002900490600052602060002090601f016020900481019282601f1061410457805160ff1916838001178555614132565b82800160010185558215614132579182015b82811115614131578251825591602001919060010190614116565b5b50905061413f919061415d565b5090565b604051806040016040528060608152602001600081525090565b61417f91905b8082111561417b576000816000905550600101614163565b5090565b9056fe5468652070726f6f6620766572696669636174696f6e20686173206661696c6564216265742063616e277420626520686967686572207468616e2062616c616e6365206f6620646170707fb956469c5c9b89840d55b43537e66a98dd4811ea0a27224272c2e5622911e8537a2f8e86a46baec82864e98dd01e9ccc2f8bc5dfc9cbe5a91a290498dd96e450726f7661626c65207175657279207761732073656e742c207374616e64696e6720627920666f722074686520616e737765722e2e2e626574206d75737420626520686967686572207468616e20302e31206574686572a265627a7a723158209925ae1cc7f2076031a51656a1f971e908fdb35a52acfb964a973882ea6db23864736f6c634300050c0032",
  "source": "import \"./Ownable.sol\";\r\nimport \"./provableAPI.sol\";\r\npragma solidity >= 0.5.12;\r\n\r\ncontract RockPaperScissors is Ownable, usingProvable {\r\n\r\n    //uint balance;\r\n    uint256 constant NUM_RANDOM_BYTES_REQUESTED = 1\r\n    ;\r\n    struct Player {\r\n        address addr;\r\n        bytes32 id;\r\n        uint bet;\r\n        uint amount;\r\n    }\r\n\r\n    mapping (bytes32 => Player) players;\r\n    mapping (address => bytes32) IDs;\r\n    mapping (address => bool) waitingList;\r\n    mapping (bytes32 => bool) pendingQueries;\r\n    mapping (address => bool) win;\r\n\r\n    event LogNewProvableQuery(string description);\r\n    event ProvableQueryProofVerify(string description);\r\n    event LogQueryId(bytes32 queryId);\r\n    event LogRandomNumber(uint number);\r\n    event ResultOfTheGame(bytes32 indexed myid, string description, bool win, uint256 prize);\r\n\r\n    //BET: 0 = \"rock\"\r\n    //     1 = \"paper\"\r\n    //     2 = \"scissors\" \r\n\r\n    constructor() public payable {\r\n        //balance = msg.value;\r\n        provable_setProof(proofType_Ledger);\r\n    }\r\n\r\n    function bet(uint mybet) public payable {\r\n        require(msg.value >= 0.1 ether, \"bet must be higher than 0.1 ether\");\r\n        require(msg.value <= address(this).balance, \"bet can't be higher than balance of dapp\");\r\n        require(waitingList[msg.sender] == false);\r\n        require(win[msg.sender] == false, \"previous prize not withdrawn\");\r\n        \r\n        waitingList[msg.sender] = true;\r\n        setAbet(msg.sender, mybet, msg.value);\r\n    } \r\n\r\n    function setAbet(address _player, uint _mybet, uint _value) private {\r\n        //sending a query for random number\r\n        bytes32 queryId = queryRandomNumber();\r\n\r\n        //setting a new bet\r\n        Player memory newPlayer;\r\n        newPlayer.addr = _player;\r\n        newPlayer.id = queryId;\r\n        newPlayer.bet = _mybet;\r\n        newPlayer.amount = _value;\r\n\r\n        players[queryId] = newPlayer;\r\n        IDs[_player] = queryId;\r\n        \r\n        emit LogQueryId(queryId);\r\n    }\r\n\r\n    function queryRandomNumber() private returns(bytes32) {\r\n        uint256 QUERY_EXECUTION_DELAY = 0;\r\n        uint256 GAS_FOR_CALLBACK = 200000;\r\n        bytes32 _queryId = provable_newRandomDSQuery(\r\n            QUERY_EXECUTION_DELAY,\r\n            NUM_RANDOM_BYTES_REQUESTED,\r\n            GAS_FOR_CALLBACK\r\n            );\r\n        pendingQueries[_queryId] = true;\r\n        emit LogNewProvableQuery(\"Provable query was sent, standing by for the answer...\");\r\n        return _queryId;\r\n    }\r\n\r\n    function __callback(bytes32 _myid, string memory _result, bytes memory _proof) public {\r\n        require (msg.sender == provable_cbAddress());\r\n        require (pendingQueries[_myid] == true);\r\n        if (provable_randomDS_proofVerify__returnCode(_myid, _result, _proof) != 0) {\r\n            emit ProvableQueryProofVerify(\"The proof verification has failed!\");\r\n            waitingList[players[_myid].addr] = false;\r\n        } else {\r\n            uint randomNumber = uint256(keccak256(abi.encodePacked(_result)))%3;\r\n            _verifyResult(_myid, randomNumber);\r\n            emit LogRandomNumber(randomNumber);\r\n        }  \r\n    }\r\n\r\n    function _verifyResult(bytes32 id, uint256 randomNumber) private {\r\n        //player wins\r\n        if ((players[id].bet == 0 && randomNumber == 2) \r\n        || (players[id].bet == 1 && randomNumber == 0)\r\n        || (players[id].bet == 2 && randomNumber == 1)) {\r\n            uint prize = 2*players[id].amount;\r\n            win[players[id].addr] = true;\r\n            //balances[players[id].addr] = 2*players[id].amount;\r\n            delete waitingList[players[id].addr];\r\n            emit  ResultOfTheGame(id, \"won\", true, prize);\r\n        }\r\n        //player looses\r\n        else if ((players[id].bet == 0 && randomNumber == 1) \r\n        || (players[id].bet == 1 && randomNumber == 2)\r\n        || (players[id].bet == 2 && randomNumber == 0)) {\r\n            delete waitingList[players[id].addr];\r\n            delete players[id];\r\n            emit  ResultOfTheGame(id, \"lost\", false, 0);    \r\n        }\r\n        //draw\r\n        else {\r\n            //play another game, action in frontend, newBet()\r\n            //balances[players[id].addr] = players[id].amount;\r\n            emit  ResultOfTheGame(id, \"draw\", false, 0);\r\n        }\r\n        \r\n        delete pendingQueries[id];\r\n    }\r\n\r\n    function newBet(uint256 _newBet) public {\r\n        require(waitingList[msg.sender] == true);\r\n\r\n        setAbet(msg.sender, _newBet, players[IDs[msg.sender]].amount);\r\n    }\r\n\r\n    function withdrawBalance () external returns(uint256) {\r\n        //require(balances[msg.sender] > 0);\r\n        require(win[msg.sender] == true);\r\n        uint256 toTransfer = 2*players[IDs[msg.sender]].amount;\r\n\r\n        delete win[msg.sender];\r\n        delete players[IDs[msg.sender]];\r\n        msg.sender.transfer(toTransfer);\r\n        //assert(balances[msg.sender] == 0);\r\n        assert(players[IDs[msg.sender]].amount == 0);\r\n       \r\n        return toTransfer;\r\n    }\r\n\r\n    function kill() public onlyOwner() {\r\n        selfdestruct(msg.sender);\r\n    }\r\n}",
  "sourcePath": "C:/Users/Admin/Documents/Ethereum course 201/RockPaperScissors/contracts/RockPaperScissors.sol",
  "compiler": {
    "name": "solc",
    "version": "0.5.12+commit.7709ece9.Emscripten.clang"
  },
  "schemaVersion": "3.0.16",
  "updatedAt": "2020-11-14T23:23:22.303Z",
  "devdoc": {
    "methods": {
      "__callback(bytes32,string)": {
        "details": "The following `__callback` functions are just placeholders ideally     meant to be defined in child contract when proofs are used.     The function bodies simply silence compiler warnings."
      }
    }
  },
  "userdoc": {
    "methods": {}
  }
}