{
  "contractName": "RockPaperScissors",
  "abi": [
    {
      "inputs": [],
      "payable": true,
      "stateMutability": "payable",
      "type": "constructor"
    },
    {
      "anonymous": false,
      "inputs": [
        {
          "indexed": false,
          "internalType": "string",
          "name": "description",
          "type": "string"
        }
      ],
      "name": "LogNewProvableQuery",
      "type": "event"
    },
    {
      "anonymous": false,
      "inputs": [
        {
          "indexed": false,
          "internalType": "bytes32",
          "name": "queryId",
          "type": "bytes32"
        }
      ],
      "name": "LogQueryId",
      "type": "event"
    },
    {
      "anonymous": false,
      "inputs": [
        {
          "indexed": false,
          "internalType": "string",
          "name": "description",
          "type": "string"
        }
      ],
      "name": "ProvableQueryProofVerify",
      "type": "event"
    },
    {
      "anonymous": false,
      "inputs": [
        {
          "indexed": true,
          "internalType": "bytes32",
          "name": "myid",
          "type": "bytes32"
        },
        {
          "indexed": false,
          "internalType": "string",
          "name": "description",
          "type": "string"
        },
        {
          "indexed": false,
          "internalType": "bool",
          "name": "win",
          "type": "bool"
        },
        {
          "indexed": false,
          "internalType": "uint256",
          "name": "prize",
          "type": "uint256"
        }
      ],
      "name": "ResultOfTheGame",
      "type": "event"
    },
    {
      "constant": false,
      "inputs": [
        {
          "internalType": "uint256",
          "name": "_bet",
          "type": "uint256"
        }
      ],
      "name": "bet",
      "outputs": [],
      "payable": true,
      "stateMutability": "payable",
      "type": "function"
    },
    {
      "constant": false,
      "inputs": [
        {
          "internalType": "bytes32",
          "name": "_myid",
          "type": "bytes32"
        },
        {
          "internalType": "string",
          "name": "_result",
          "type": "string"
        }
      ],
      "name": "__callback",
      "outputs": [],
      "payable": false,
      "stateMutability": "nonpayable",
      "type": "function"
    },
    {
      "constant": false,
      "inputs": [
        {
          "internalType": "bytes32",
          "name": "_myid",
          "type": "bytes32"
        },
        {
          "internalType": "string",
          "name": "_result",
          "type": "string"
        },
        {
          "internalType": "bytes",
          "name": "_proof",
          "type": "bytes"
        }
      ],
      "name": "__callback",
      "outputs": [],
      "payable": false,
      "stateMutability": "nonpayable",
      "type": "function"
    },
    {
      "constant": false,
      "inputs": [],
      "name": "withdrawBalance",
      "outputs": [
        {
          "internalType": "uint256",
          "name": "",
          "type": "uint256"
        }
      ],
      "payable": false,
      "stateMutability": "nonpayable",
      "type": "function"
    },
    {
      "constant": false,
      "inputs": [],
      "name": "kill",
      "outputs": [],
      "payable": false,
      "stateMutability": "nonpayable",
      "type": "function"
    }
  ],
  "bytecode": "0x6080604052336000806101000a81548173ffffffffffffffffffffffffffffffffffffffff021916908373ffffffffffffffffffffffffffffffffffffffff16021790555062000059603060f81b6200005f60201b60201c565b62000a83565b600073ffffffffffffffffffffffffffffffffffffffff16600260009054906101000a900473ffffffffffffffffffffffffffffffffffffffff1673ffffffffffffffffffffffffffffffffffffffff161480620000ef57506000620000ed600260009054906101000a900473ffffffffffffffffffffffffffffffffffffffff16620003c560201b60201c565b145b156200010957620001076000620003d060201b60201c565b505b600260009054906101000a900473ffffffffffffffffffffffffffffffffffffffff1673ffffffffffffffffffffffffffffffffffffffff166338cc48316040518163ffffffff1660e01b8152600401602060405180830381600087803b1580156200017457600080fd5b505af115801562000189573d6000803e3d6000fd5b505050506040513d6020811015620001a057600080fd5b810190808051906020019092919050505073ffffffffffffffffffffffffffffffffffffffff16600160009054906101000a900473ffffffffffffffffffffffffffffffffffffffff1673ffffffffffffffffffffffffffffffffffffffff1614620002ef57600260009054906101000a900473ffffffffffffffffffffffffffffffffffffffff1673ffffffffffffffffffffffffffffffffffffffff166338cc48316040518163ffffffff1660e01b8152600401602060405180830381600087803b1580156200027157600080fd5b505af115801562000286573d6000803e3d6000fd5b505050506040513d60208110156200029d57600080fd5b8101908080519060200190929190505050600160006101000a81548173ffffffffffffffffffffffffffffffffffffffff021916908373ffffffffffffffffffffffffffffffffffffffff1602179055505b600160009054906101000a900473ffffffffffffffffffffffffffffffffffffffff1673ffffffffffffffffffffffffffffffffffffffff1663688dcfd7826040518263ffffffff1660e01b815260040180827effffffffffffffffffffffffffffffffffffffffffffffffffffffffffffff19167effffffffffffffffffffffffffffffffffffffffffffffffffffffffffffff19168152602001915050600060405180830381600087803b158015620003a957600080fd5b505af1158015620003be573d6000803e3d6000fd5b5050505050565b6000813b9050919050565b6000620003e2620003e960201b60201c565b9050919050565b60008062000411731d3b2638a7cc9f2cb3d298a3da7a90b67e5506ed620003c560201b60201c565b1115620004bd57731d3b2638a7cc9f2cb3d298a3da7a90b67e5506ed600260006101000a81548173ffffffffffffffffffffffffffffffffffffffff021916908373ffffffffffffffffffffffffffffffffffffffff160217905550620004b36040518060400160405280600b81526020017f6574685f6d61696e6e6574000000000000000000000000000000000000000000815250620009b860201b60201c565b60019050620009b5565b6000620004e473c03a2615d5efaf5f49f60b7bb6583eaec212fdf1620003c560201b60201c565b1115620005905773c03a2615d5efaf5f49f60b7bb6583eaec212fdf1600260006101000a81548173ffffffffffffffffffffffffffffffffffffffff021916908373ffffffffffffffffffffffffffffffffffffffff160217905550620005866040518060400160405280600c81526020017f6574685f726f707374656e330000000000000000000000000000000000000000815250620009b860201b60201c565b60019050620009b5565b6000620005b773b7a07bcf2ba2f2703b24c0691b5278999c59ac7e620003c560201b60201c565b1115620006635773b7a07bcf2ba2f2703b24c0691b5278999c59ac7e600260006101000a81548173ffffffffffffffffffffffffffffffffffffffff021916908373ffffffffffffffffffffffffffffffffffffffff160217905550620006596040518060400160405280600981526020017f6574685f6b6f76616e0000000000000000000000000000000000000000000000815250620009b860201b60201c565b60019050620009b5565b60006200068a73146500cfd35b22e4a392fe0adc06de1a1368ed48620003c560201b60201c565b1115620007365773146500cfd35b22e4a392fe0adc06de1a1368ed48600260006101000a81548173ffffffffffffffffffffffffffffffffffffffff021916908373ffffffffffffffffffffffffffffffffffffffff1602179055506200072c6040518060400160405280600b81526020017f6574685f72696e6b656279000000000000000000000000000000000000000000815250620009b860201b60201c565b60019050620009b5565b60006200075d73a2998efd205fb9d4b4963afb70778d6354ad3a41620003c560201b60201c565b1115620008095773a2998efd205fb9d4b4963afb70778d6354ad3a41600260006101000a81548173ffffffffffffffffffffffffffffffffffffffff021916908373ffffffffffffffffffffffffffffffffffffffff160217905550620007ff6040518060400160405280600a81526020017f6574685f676f65726c6900000000000000000000000000000000000000000000815250620009b860201b60201c565b60019050620009b5565b600062000830736f485c8bf6fc43ea212e93bbf8ce046c7f1cb475620003c560201b60201c565b11156200089657736f485c8bf6fc43ea212e93bbf8ce046c7f1cb475600260006101000a81548173ffffffffffffffffffffffffffffffffffffffff021916908373ffffffffffffffffffffffffffffffffffffffff16021790555060019050620009b5565b6000620008bd7320e12a1f859b3feae5fb2a0a32c18f5a65555bbf620003c560201b60201c565b111562000923577320e12a1f859b3feae5fb2a0a32c18f5a65555bbf600260006101000a81548173ffffffffffffffffffffffffffffffffffffffff021916908373ffffffffffffffffffffffffffffffffffffffff16021790555060019050620009b5565b60006200094a7351efaf4c8b3c9afbd5ab9f4bbc82784ab6ef8faa620003c560201b60201c565b1115620009b0577351efaf4c8b3c9afbd5ab9f4bbc82784ab6ef8faa600260006101000a81548173ffffffffffffffffffffffffffffffffffffffff021916908373ffffffffffffffffffffffffffffffffffffffff16021790555060019050620009b5565b600090505b90565b8060039080519060200190620009d0929190620009d4565b5050565b828054600181600116156101000203166002900490600052602060002090601f016020900481019282601f1062000a1757805160ff191683800117855562000a48565b8280016001018555821562000a48579182015b8281111562000a4757825182559160200191906001019062000a2a565b5b50905062000a57919062000a5b565b5090565b62000a8091905b8082111562000a7c57600081600090555060010162000a62565b5090565b90565b613f0d8062000a936000396000f3fe60806040526004361061004a5760003560e01c806327dc297e1461004f57806338bbfa501461012157806341c0e1b51461028a5780635fd8c710146102a15780637365870b146102cc575b600080fd5b34801561005b57600080fd5b5061011f6004803603604081101561007257600080fd5b81019080803590602001909291908035906020019064010000000081111561009957600080fd5b8201836020820111156100ab57600080fd5b803590602001918460018302840111640100000000831117156100cd57600080fd5b91908080601f016020809104026020016040519081016040528093929190818152602001838380828437600081840152601f19601f8201169050808301925050505050505091929192905050506102fa565b005b34801561012d57600080fd5b506102886004803603606081101561014457600080fd5b81019080803590602001909291908035906020019064010000000081111561016b57600080fd5b82018360208201111561017d57600080fd5b8035906020019184600183028401116401000000008311171561019f57600080fd5b91908080601f016020809104026020016040519081016040528093929190818152602001838380828437600081840152601f19601f8201169050808301925050505050505091929192908035906020019064010000000081111561020257600080fd5b82018360208201111561021457600080fd5b8035906020019184600183028401116401000000008311171561023657600080fd5b91908080601f016020809104026020016040519081016040528093929190818152602001838380828437600081840152601f19601f82011690508083019250505050505050919291929050505061033d565b005b34801561029657600080fd5b5061029f6104a6565b005b3480156102ad57600080fd5b506102b6610518565b6040518082815260200191505060405180910390f35b6102f8600480360360208110156102e257600080fd5b81019080803590602001909291905050506106d2565b005b610339828260006040519080825280601f01601f1916602001820160405280156103335781602001600182028038833980820191505090505b5061033d565b5050565b610345610922565b73ffffffffffffffffffffffffffffffffffffffff163373ffffffffffffffffffffffffffffffffffffffff161461037c57600080fd5b600115156008600085815260200190815260200160002060009054906101000a900460ff161515146103ad57600080fd5b60006103ba848484610c42565b60ff1614610412577fc45a5dff3ba756b8c4d8704e66fafa0109698d3d0e4137d959197ef82d714a93604051808060200182810382526022815260200180613df86022913960400191505060405180910390a16104a1565b60006003836040516020018082805190602001908083835b6020831061044d578051825260208201915060208101905060208303925061042a565b6001836020036101000a0380198251168184511680821785525050505050509050019150506040516020818303038152906040528051906020012060001c8161049257fe5b06905061049f8482610d72565b505b505050565b6000809054906101000a900473ffffffffffffffffffffffffffffffffffffffff1673ffffffffffffffffffffffffffffffffffffffff163373ffffffffffffffffffffffffffffffffffffffff16146104ff57600080fd5b3373ffffffffffffffffffffffffffffffffffffffff16ff5b600080600960003373ffffffffffffffffffffffffffffffffffffffff1673ffffffffffffffffffffffffffffffffffffffff168152602001908152602001600020541161056557600080fd5b6000600960003373ffffffffffffffffffffffffffffffffffffffff1673ffffffffffffffffffffffffffffffffffffffff168152602001908152602001600020549050600960003373ffffffffffffffffffffffffffffffffffffffff1673ffffffffffffffffffffffffffffffffffffffff16815260200190815260200160002060009055600760003373ffffffffffffffffffffffffffffffffffffffff1673ffffffffffffffffffffffffffffffffffffffff16815260200190815260200160002060006101000a81549060ff02191690553373ffffffffffffffffffffffffffffffffffffffff166108fc829081150290604051600060405180830381858888f19350505050158015610681573d6000803e3d6000fd5b506000600960003373ffffffffffffffffffffffffffffffffffffffff1673ffffffffffffffffffffffffffffffffffffffff16815260200190815260200160002054146106cb57fe5b8091505090565b67016345785d8a0000341015610733576040517f08c379a0000000000000000000000000000000000000000000000000000000008152600401808060200182810382526021815260200180613eb86021913960400191505060405180910390fd5b3073ffffffffffffffffffffffffffffffffffffffff16313411156107a3576040517f08c379a0000000000000000000000000000000000000000000000000000000008152600401808060200182810382526028815260200180613e1a6028913960400191505060405180910390fd5b60001515600760003373ffffffffffffffffffffffffffffffffffffffff1673ffffffffffffffffffffffffffffffffffffffff16815260200190815260200160002060009054906101000a900460ff1615151461080057600080fd5b600061080a611279565b90507fba5c08e7ca16d504b0119b4b9e09b27a571d73bf338d327cfbbe54b0b55ff88d816040518082815260200191505060405180910390a161084b613cd0565b33816000019073ffffffffffffffffffffffffffffffffffffffff16908173ffffffffffffffffffffffffffffffffffffffff1681525050818160200181815250508281604001818152505034816060018181525050806006600084815260200190815260200160002060008201518160000160006101000a81548173ffffffffffffffffffffffffffffffffffffffff021916908373ffffffffffffffffffffffffffffffffffffffff160217905550602082015181600101556040820151816002015560608201518160030155905050505050565b60008073ffffffffffffffffffffffffffffffffffffffff16600260009054906101000a900473ffffffffffffffffffffffffffffffffffffffff1673ffffffffffffffffffffffffffffffffffffffff1614806109aa575060006109a8600260009054906101000a900473ffffffffffffffffffffffffffffffffffffffff16611318565b145b156109bb576109b96000611323565b505b600260009054906101000a900473ffffffffffffffffffffffffffffffffffffffff1673ffffffffffffffffffffffffffffffffffffffff166338cc48316040518163ffffffff1660e01b8152600401602060405180830381600087803b158015610a2557600080fd5b505af1158015610a39573d6000803e3d6000fd5b505050506040513d6020811015610a4f57600080fd5b810190808051906020019092919050505073ffffffffffffffffffffffffffffffffffffffff16600160009054906101000a900473ffffffffffffffffffffffffffffffffffffffff1673ffffffffffffffffffffffffffffffffffffffff1614610b9a57600260009054906101000a900473ffffffffffffffffffffffffffffffffffffffff1673ffffffffffffffffffffffffffffffffffffffff166338cc48316040518163ffffffff1660e01b8152600401602060405180830381600087803b158015610b1e57600080fd5b505af1158015610b32573d6000803e3d6000fd5b505050506040513d6020811015610b4857600080fd5b8101908080519060200190929190505050600160006101000a81548173ffffffffffffffffffffffffffffffffffffffff021916908373ffffffffffffffffffffffffffffffffffffffff1602179055505b600160009054906101000a900473ffffffffffffffffffffffffffffffffffffffff1673ffffffffffffffffffffffffffffffffffffffff1663c281d19e6040518163ffffffff1660e01b815260040160206040518083038186803b158015610c0257600080fd5b505afa158015610c16573d6000803e3d6000fd5b505050506040513d6020811015610c2c57600080fd5b8101908080519060200190929190505050905090565b60007f4c0000000000000000000000000000000000000000000000000000000000000082600081518110610c7257fe5b602001015160f81c60f81b7effffffffffffffffffffffffffffffffffffffffffffffffffffffffffffff1916141580610d0557507f500000000000000000000000000000000000000000000000000000000000000082600181518110610cd557fe5b602001015160f81c60f81b7effffffffffffffffffffffffffffffffffffffffffffffffffffffffffffff191614155b80610d315750600160ff1682600281518110610d1d57fe5b602001015160f81c60f81b60f81c60ff1614155b15610d3f5760019050610d6b565b6000610d54838686610d4f611334565b6113d6565b905080610d65576002915050610d6b565b60009150505b9392505050565b60006006600084815260200190815260200160002060020154148015610d985750600281145b80610dc5575060016006600084815260200190815260200160002060020154148015610dc45750600081145b5b80610df2575060026006600084815260200190815260200160002060020154148015610df15750600181145b5b15610f82576006600083815260200190815260200160002060030154600202600960006006600086815260200190815260200160002060000160009054906101000a900473ffffffffffffffffffffffffffffffffffffffff1673ffffffffffffffffffffffffffffffffffffffff1673ffffffffffffffffffffffffffffffffffffffff16815260200190815260200160002081905550817fd9408e3bd81f175726045630b32722a7624ed5a66f4cab78e49224b8713dbc3b6001600960006006600088815260200190815260200160002060000160009054906101000a900473ffffffffffffffffffffffffffffffffffffffff1673ffffffffffffffffffffffffffffffffffffffff1673ffffffffffffffffffffffffffffffffffffffff16815260200190815260200160002054604051808060200184151515158152602001838152602001828103825260038152602001807f776f6e0000000000000000000000000000000000000000000000000000000000815250602001935050505060405180910390a26111fd565b60006006600084815260200190815260200160002060020154148015610fa85750600181145b80610fd5575060016006600084815260200190815260200160002060020154148015610fd45750600281145b5b806110025750600260066000848152602001908152602001600020600201541480156110015750600081145b5b156110ff57817fd9408e3bd81f175726045630b32722a7624ed5a66f4cab78e49224b8713dbc3b6000600960006006600088815260200190815260200160002060000160009054906101000a900473ffffffffffffffffffffffffffffffffffffffff1673ffffffffffffffffffffffffffffffffffffffff1673ffffffffffffffffffffffffffffffffffffffff16815260200190815260200160002054604051808060200184151515158152602001838152602001828103825260048152602001807f6c6f737400000000000000000000000000000000000000000000000000000000815250602001935050505060405180910390a26111fc565b611107611279565b50817fd9408e3bd81f175726045630b32722a7624ed5a66f4cab78e49224b8713dbc3b6000600960006006600088815260200190815260200160002060000160009054906101000a900473ffffffffffffffffffffffffffffffffffffffff1673ffffffffffffffffffffffffffffffffffffffff1673ffffffffffffffffffffffffffffffffffffffff16815260200190815260200160002054604051808060200184151515158152602001838152602001828103825260048152602001807f6472617700000000000000000000000000000000000000000000000000000000815250602001935050505060405180910390a25b5b6008600083815260200190815260200160002060006101000a81549060ff021916905560066000838152602001908152602001600020600080820160006101000a81549073ffffffffffffffffffffffffffffffffffffffff021916905560018201600090556002820160009055600382016000905550505050565b60008060009050600062030d409050600061129683600184611a81565b905060016008600083815260200190815260200160002060006101000a81548160ff0219169083151502179055507fc4dc360d0a9c0677a3379ae0a3d81e887f761e65fdf3d7e00859d1bcd3c47389604051808060200182810382526036815260200180613e826036913960400191505060405180910390a180935050505090565b6000813b9050919050565b600061132d61201c565b9050919050565b606060038054600181600116156101000203166002900480601f0160208091040260200160405190810160405280929190818152602001828054600181600116156101000203166002900480156113cc5780601f106113a1576101008083540402835291602001916113cc565b820191906000526020600020905b8154815290600101906020018083116113af57829003601f168201915b5050505050905090565b60008060206002876045815181106113ea57fe5b602001015160f81c60f81b60f81c60ff1601604401019050606060206040519080825280601f01601f1916602001820160405280156114385781602001600182028038833980820191505090505b50905061144a87836020846000612573565b50600284876040516020018083805190602001908083835b602083106114855780518252602082019150602081019050602083039250611462565b6001836020036101000a038019825116818451168082178552505050505050905001828152602001925050506040516020818303038152906040526040518082805190602001908083835b602083106114f357805182526020820191506020810190506020830392506114d0565b6001836020036101000a038019825116818451168082178552505050505050905001915050602060405180830381855afa158015611535573d6000803e3d6000fd5b5050506040513d602081101561154a57600080fd5b8101908080519060200190929190505050604051602001808281526020019150506040516020818303038152906040528051906020012081805190602001201461159957600092505050611a79565b606060028860016049860101815181106115af57fe5b602001015160f81c60f81b60f81c60ff16016040519080825280601f01601f1916602001820160405280156115f35781602001600182028038833980820191505090505b50905061160888604985018351846000612573565b506116d36002826040518082805190602001908083835b60208310611642578051825260208201915060208101905060208303925061161f565b6001836020036101000a038019825116818451168082178552505050505050905001915050602060405180830381855afa158015611684573d6000803e3d6000fd5b5050506040513d602081101561169957600080fd5b8101908080519060200190929190505050878a60086020880101815181106116bd57fe5b602001015160f81c60f81b60f81c60ff166125d2565b6116e35760009350505050611a79565b606060296040519080825280601f01601f1916602001820160405280156117195781602001600182028038833980820191505090505b50905061172e89602086016029846000612573565b506060604080519080825280601f01601f1916602001820160405280156117645781602001600182028038833980820191505090505b509050600060418451602960208901010101905061178a8b604083036040856000612573565b5060006002836040518082805190602001908083835b602083106117c357805182526020820191506020810190506020830392506117a0565b6001836020036101000a038019825116818451168082178552505050505050905001915050602060405180830381855afa158015611805573d6000803e3d6000fd5b5050506040513d602081101561181a57600080fd5b8101908080519060200190929190505050905083816040516020018083805190602001908083835b602083106118655780518252602082019150602081019050602083039250611842565b6001836020036101000a0380198251168184511680821785525050505050509050018281526020019250505060405160208183030381529060405280519060200120600460008d81526020019081526020016000205414156118dd57600460008c8152602001908152602001600020600090556118ed565b6000975050505050505050611a79565b606060496040519080825280601f01601f1916602001820160405280156119235781602001600182028038833980820191505090505b5090506119358d896049846000612573565b506119de6002826040518082805190602001908083835b6020831061196f578051825260208201915060208101905060208303925061194c565b6001836020036101000a038019825116818451168082178552505050505050905001915050602060405180830381855afa1580156119b1573d6000803e3d6000fd5b5050506040513d60208110156119c657600080fd5b81019080805190602001909291905050508786612682565b6119f357600098505050505050505050611a79565b6005600083815260200190815260200160002060009054906101000a900460ff16611a4d57611a228d84612840565b6005600084815260200190815260200160002060006101000a81548160ff0219169083151502179055505b6005600083815260200190815260200160002060009054906101000a900460ff16985050505050505050505b949350505050565b60008083118015611a93575060208311155b611a9c57600080fd5b600a84029350606060016040519080825280601f01601f191660200182016040528015611ad85781602001600182028038833980820191505090505b5090508360f81b81600081518110611aec57fe5b60200101907effffffffffffffffffffffffffffffffffffffffffffffffffffffffffffff1916908160001a905350606060206040519080825280601f01601f191660200182016040528015611b515781602001600182028038833980820191505090505b509050606060206040519080825280601f01601f191660200182016040528015611b8a5781602001600182028038833980820191505090505b5090506000611b97612c58565b905060208352424118600143034018602084015260208252806020830152606060206040519080825280601f01601f191660200182016040528015611beb5781602001600182028038833980820191505090505b509050886020820152606060086040519080825280601f01601f191660200182016040528015611c2a5781602001600182028038833980820191505090505b509050611c3d8260186008846000612573565b50611c46613d11565b60405180608001604052808781526020018881526020018681526020018481525090506000611cab6040518060400160405280600681526020017f72616e646f6d0000000000000000000000000000000000000000000000000000815250838c612f78565b9050606060086040519080825280601f01601f191660200182016040528015611ce35781602001600182028038833980820191505090505b50905060208401517f0100000000000000000000000000000000000000000000000000000000000000810460278301537e01000000000000000000000000000000000000000000000000000000000000810460268301537d010000000000000000000000000000000000000000000000000000000000810460258301537c0100000000000000000000000000000000000000000000000000000000810460248301537b01000000000000000000000000000000000000000000000000000000810460238301537a010000000000000000000000000000000000000000000000000000810460228301537901000000000000000000000000000000000000000000000000008104602183015378010000000000000000000000000000000000000000000000008104602083015350612009828285600160048110611e2257fe5b6020020151600287600060048110611e3657fe5b60200201516040518082805190602001908083835b60208310611e6e5780518252602082019150602081019050602083039250611e4b565b6001836020036101000a038019825116818451168082178552505050505050905001915050602060405180830381855afa158015611eb0573d6000803e3d6000fd5b5050506040513d6020811015611ec557600080fd5b810190808051906020019092919050505087600260048110611ee357fe5b60200201516040516020018085805190602001908083835b60208310611f1e5780518252602082019150602081019050602083039250611efb565b6001836020036101000a03801982511681845116808217855250505050505090500184805190602001908083835b60208310611f6f5780518252602082019150602081019050602083039250611f4c565b6001836020036101000a03801982511681845116808217855250505050505090500183815260200182805190602001908083835b60208310611fc65780518252602082019150602081019050602083039250611fa3565b6001836020036101000a038019825116818451168082178552505050505050905001945050505050604051602081830303815290604052805190602001206132e7565b8199505050505050505050509392505050565b60008061203c731d3b2638a7cc9f2cb3d298a3da7a90b67e5506ed611318565b11156120de57731d3b2638a7cc9f2cb3d298a3da7a90b67e5506ed600260006101000a81548173ffffffffffffffffffffffffffffffffffffffff021916908373ffffffffffffffffffffffffffffffffffffffff1602179055506120d56040518060400160405280600b81526020017f6574685f6d61696e6e6574000000000000000000000000000000000000000000815250613303565b60019050612570565b60006120fd73c03a2615d5efaf5f49f60b7bb6583eaec212fdf1611318565b111561219f5773c03a2615d5efaf5f49f60b7bb6583eaec212fdf1600260006101000a81548173ffffffffffffffffffffffffffffffffffffffff021916908373ffffffffffffffffffffffffffffffffffffffff1602179055506121966040518060400160405280600c81526020017f6574685f726f707374656e330000000000000000000000000000000000000000815250613303565b60019050612570565b60006121be73b7a07bcf2ba2f2703b24c0691b5278999c59ac7e611318565b11156122605773b7a07bcf2ba2f2703b24c0691b5278999c59ac7e600260006101000a81548173ffffffffffffffffffffffffffffffffffffffff021916908373ffffffffffffffffffffffffffffffffffffffff1602179055506122576040518060400160405280600981526020017f6574685f6b6f76616e0000000000000000000000000000000000000000000000815250613303565b60019050612570565b600061227f73146500cfd35b22e4a392fe0adc06de1a1368ed48611318565b11156123215773146500cfd35b22e4a392fe0adc06de1a1368ed48600260006101000a81548173ffffffffffffffffffffffffffffffffffffffff021916908373ffffffffffffffffffffffffffffffffffffffff1602179055506123186040518060400160405280600b81526020017f6574685f72696e6b656279000000000000000000000000000000000000000000815250613303565b60019050612570565b600061234073a2998efd205fb9d4b4963afb70778d6354ad3a41611318565b11156123e25773a2998efd205fb9d4b4963afb70778d6354ad3a41600260006101000a81548173ffffffffffffffffffffffffffffffffffffffff021916908373ffffffffffffffffffffffffffffffffffffffff1602179055506123d96040518060400160405280600a81526020017f6574685f676f65726c6900000000000000000000000000000000000000000000815250613303565b60019050612570565b6000612401736f485c8bf6fc43ea212e93bbf8ce046c7f1cb475611318565b111561246557736f485c8bf6fc43ea212e93bbf8ce046c7f1cb475600260006101000a81548173ffffffffffffffffffffffffffffffffffffffff021916908373ffffffffffffffffffffffffffffffffffffffff16021790555060019050612570565b60006124847320e12a1f859b3feae5fb2a0a32c18f5a65555bbf611318565b11156124e8577320e12a1f859b3feae5fb2a0a32c18f5a65555bbf600260006101000a81548173ffffffffffffffffffffffffffffffffffffffff021916908373ffffffffffffffffffffffffffffffffffffffff16021790555060019050612570565b60006125077351efaf4c8b3c9afbd5ab9f4bbc82784ab6ef8faa611318565b111561256b577351efaf4c8b3c9afbd5ab9f4bbc82784ab6ef8faa600260006101000a81548173ffffffffffffffffffffffffffffffffffffffff021916908373ffffffffffffffffffffffffffffffffffffffff16021790555060019050612570565b600090505b90565b606060008285019050808451101561258a57600080fd5b600086602001905060008460200190505b8688602001018210156125c3578189015180828801525060208201915060208101905061259b565b85935050505095945050505050565b60008060019050828451146125e657600080fd5b60008090505b838110156126765784818151811061260057fe5b602001015160f81c60f81b7effffffffffffffffffffffffffffffffffffffffffffffffffffffffffffff191686826020811061263957fe5b1a60f81b7effffffffffffffffffffffffffffffffffffffffffffffffffffffffffffff19161461266957600091505b80806001019150506125ec565b50809150509392505050565b6000806000806000606060206040519080825280601f01601f1916602001820160405280156126c05781602001600182028038833980820191505090505b50905060006020896003815181106126d457fe5b602001015160f81c60f81b60f81c60ff160360040190506126fa89826020856000612573565b9150606060206040519080825280601f01601f1916602001820160405280156127325781602001600182028038833980820191505090505b50905060228201915061276e8a60208c600186038151811061275057fe5b602001015160f81c60f81b60f81c60ff160384016020846000612573565b9050602083015194506020810151935061278b8b601b878761331d565b80975081985050508573ffffffffffffffffffffffffffffffffffffffff16898051906020012060001c73ffffffffffffffffffffffffffffffffffffffff1614156127e1576001975050505050505050612839565b6127ee8b601c878761331d565b80975081985050508573ffffffffffffffffffffffffffffffffffffffff16898051906020012060001c73ffffffffffffffffffffffffffffffffffffffff16149750505050505050505b9392505050565b6000806060600285600186018151811061285657fe5b602001015160f81c60f81b60f81c60ff16016040519080825280601f01601f19166020018201604052801561289a5781602001600182028038833980820191505090505b5090506128ac85858351846000612573565b506060604080519080825280601f01601f1916602001820160405280156128e25781602001600182028038833980820191505090505b5090506128f58660046040846000612573565b50606060626040519080825280601f01601f19166020018201604052801561292c5781602001600182028038833980820191505090505b509050600160f81b8160008151811061294157fe5b60200101907effffffffffffffffffffffffffffffffffffffffffffffffffffffffffffff1916908160001a90535061298287604188036041846001612573565b5060606040518060400160405280602081526020017ffd94fa71bc0ba10d39d464d0d8f465efeef0a2764e3887fcc9df41ded20f505c81525090506129cd8160006020856042612573565b50612a766002836040518082805190602001908083835b60208310612a0757805182526020820191506020810190506020830392506129e4565b6001836020036101000a038019825116818451168082178552505050505050905001915050602060405180830381855afa158015612a49573d6000803e3d6000fd5b5050506040513d6020811015612a5e57600080fd5b81019080805190602001909291905050508585612682565b945084612a8b57600095505050505050612c52565b6060604051806060016040528060408152602001613e42604091399050606060426040519080825280601f01601f191660200182016040528015612ade5781602001600182028038833980820191505090505b50905060fe60f81b81600081518110612af357fe5b60200101907effffffffffffffffffffffffffffffffffffffffffffffffffffffffffffff1916908160001a905350612b328a60036041846001612573565b50606060028b604581518110612b4457fe5b602001015160f81c60f81b60f81c60ff16016040519080825280601f01601f191660200182016040528015612b885781602001600182028038833980820191505090505b509050612b9b8b60448351846000612573565b50612c446002836040518082805190602001908083835b60208310612bd55780518252602082019150602081019050602083039250612bb2565b6001836020036101000a038019825116818451168082178552505050505050905001915050602060405180830381855afa158015612c17573d6000803e3d6000fd5b5050506040513d6020811015612c2c57600080fd5b81019080805190602001909291905050508285612682565b975087985050505050505050505b92915050565b60008073ffffffffffffffffffffffffffffffffffffffff16600260009054906101000a900473ffffffffffffffffffffffffffffffffffffffff1673ffffffffffffffffffffffffffffffffffffffff161480612ce057506000612cde600260009054906101000a900473ffffffffffffffffffffffffffffffffffffffff16611318565b145b15612cf157612cef6000611323565b505b600260009054906101000a900473ffffffffffffffffffffffffffffffffffffffff1673ffffffffffffffffffffffffffffffffffffffff166338cc48316040518163ffffffff1660e01b8152600401602060405180830381600087803b158015612d5b57600080fd5b505af1158015612d6f573d6000803e3d6000fd5b505050506040513d6020811015612d8557600080fd5b810190808051906020019092919050505073ffffffffffffffffffffffffffffffffffffffff16600160009054906101000a900473ffffffffffffffffffffffffffffffffffffffff1673ffffffffffffffffffffffffffffffffffffffff1614612ed057600260009054906101000a900473ffffffffffffffffffffffffffffffffffffffff1673ffffffffffffffffffffffffffffffffffffffff166338cc48316040518163ffffffff1660e01b8152600401602060405180830381600087803b158015612e5457600080fd5b505af1158015612e68573d6000803e3d6000fd5b505050506040513d6020811015612e7e57600080fd5b8101908080519060200190929190505050600160006101000a81548173ffffffffffffffffffffffffffffffffffffffff021916908373ffffffffffffffffffffffffffffffffffffffff1602179055505b600160009054906101000a900473ffffffffffffffffffffffffffffffffffffffff1673ffffffffffffffffffffffffffffffffffffffff1663abaa5f3e6040518163ffffffff1660e01b815260040160206040518083038186803b158015612f3857600080fd5b505afa158015612f4c573d6000803e3d6000fd5b505050506040513d6020811015612f6257600080fd5b8101908080519060200190929190505050905090565b60008073ffffffffffffffffffffffffffffffffffffffff16600260009054906101000a900473ffffffffffffffffffffffffffffffffffffffff1673ffffffffffffffffffffffffffffffffffffffff16148061300057506000612ffe600260009054906101000a900473ffffffffffffffffffffffffffffffffffffffff16611318565b145b156130115761300f6000611323565b505b600260009054906101000a900473ffffffffffffffffffffffffffffffffffffffff1673ffffffffffffffffffffffffffffffffffffffff166338cc48316040518163ffffffff1660e01b8152600401602060405180830381600087803b15801561307b57600080fd5b505af115801561308f573d6000803e3d6000fd5b505050506040513d60208110156130a557600080fd5b810190808051906020019092919050505073ffffffffffffffffffffffffffffffffffffffff16600160009054906101000a900473ffffffffffffffffffffffffffffffffffffffff1673ffffffffffffffffffffffffffffffffffffffff16146131f057600260009054906101000a900473ffffffffffffffffffffffffffffffffffffffff1673ffffffffffffffffffffffffffffffffffffffff166338cc48316040518163ffffffff1660e01b8152600401602060405180830381600087803b15801561317457600080fd5b505af1158015613188573d6000803e3d6000fd5b505050506040513d602081101561319e57600080fd5b8101908080519060200190929190505050600160006101000a81548173ffffffffffffffffffffffffffffffffffffffff021916908373ffffffffffffffffffffffffffffffffffffffff1602179055505b6060600460405190808252806020026020018201604052801561322757816020015b60608152602001906001900390816132125790505b5090508360006004811061323757fe5b60200201518160008151811061324957fe5b60200260200101819052508360016004811061326157fe5b60200201518160018151811061327357fe5b60200260200101819052508360026004811061328b57fe5b60200201518160028151811061329d57fe5b6020026020010181905250836003600481106132b557fe5b6020020151816003815181106132c757fe5b60200260200101819052506132dd858285613361565b9150509392505050565b8060046000848152602001908152602001600020819055505050565b8060039080519060200190613319929190613d38565b5050565b60008060008060405188815287602082015286604082015285606082015260208160808360006001610bb8f192508051915050818193509350505094509492505050565b60008073ffffffffffffffffffffffffffffffffffffffff16600260009054906101000a900473ffffffffffffffffffffffffffffffffffffffff1673ffffffffffffffffffffffffffffffffffffffff1614806133e9575060006133e7600260009054906101000a900473ffffffffffffffffffffffffffffffffffffffff16611318565b145b156133fa576133f86000611323565b505b600260009054906101000a900473ffffffffffffffffffffffffffffffffffffffff1673ffffffffffffffffffffffffffffffffffffffff166338cc48316040518163ffffffff1660e01b8152600401602060405180830381600087803b15801561346457600080fd5b505af1158015613478573d6000803e3d6000fd5b505050506040513d602081101561348e57600080fd5b810190808051906020019092919050505073ffffffffffffffffffffffffffffffffffffffff16600160009054906101000a900473ffffffffffffffffffffffffffffffffffffffff1673ffffffffffffffffffffffffffffffffffffffff16146135d957600260009054906101000a900473ffffffffffffffffffffffffffffffffffffffff1673ffffffffffffffffffffffffffffffffffffffff166338cc48316040518163ffffffff1660e01b8152600401602060405180830381600087803b15801561355d57600080fd5b505af1158015613571573d6000803e3d6000fd5b505050506040513d602081101561358757600080fd5b8101908080519060200190929190505050600160006101000a81548173ffffffffffffffffffffffffffffffffffffffff021916908373ffffffffffffffffffffffffffffffffffffffff1602179055505b6000600160009054906101000a900473ffffffffffffffffffffffffffffffffffffffff1673ffffffffffffffffffffffffffffffffffffffff16632ef3accc86856040518363ffffffff1660e01b81526004018080602001838152602001828103825284818151815260200191508051906020019080838360005b83811015613670578082015181840152602081019050613655565b50505050905090810190601f16801561369d5780820380516001836020036101000a031916815260200191505b509350505050602060405180830381600087803b1580156136bd57600080fd5b505af11580156136d1573d6000803e3d6000fd5b505050506040513d60208110156136e757600080fd5b81019080805190602001909291905050509050823a02670de0b6b3a76400000181111561371a576000801b9150506138c0565b6060613725856138c7565b9050600160009054906101000a900473ffffffffffffffffffffffffffffffffffffffff1673ffffffffffffffffffffffffffffffffffffffff1663c55c1cb68360008985896040518663ffffffff1660e01b8152600401808581526020018060200180602001848152602001838103835286818151815260200191508051906020019080838360005b838110156137ca5780820151818401526020810190506137af565b50505050905090810190601f1680156137f75780820380516001836020036101000a031916815260200191505b50838103825285818151815260200191508051906020019080838360005b83811015613830578082015181840152602081019050613815565b50505050905090810190601f16801561385d5780820380516001836020036101000a031916815260200191505b5096505050505050506020604051808303818588803b15801561387f57600080fd5b505af1158015613893573d6000803e3d6000fd5b50505050506040513d60208110156138aa57600080fd5b8101908080519060200190929190505050925050505b9392505050565b60606138d1613947565b6138d9613db8565b6138e581610400613953565b6138ee8161399d565b60008090505b83518110156139305761392384828151811061390c57fe5b6020026020010151836139ab90919063ffffffff16565b80806001019150506138f4565b5061393a816139d0565b8060000151915050919050565b60405180590338823950565b600081905060006020828161396457fe5b061461397d576020818161397457fe5b06602003810190505b808360200181815250506040518084526000815281810160405250505050565b6139a88160046139de565b50565b6139b882600283516139ff565b6139cb8183613b3f90919063ffffffff16565b505050565b6139db8160076139de565b50565b6139fb601f60058360ff16901b1783613bea90919063ffffffff16565b5050565b60178111613a2b57613a268160058460ff16901b60ff161784613bea90919063ffffffff16565b613b3a565b60ff8111613a6c57613a50601860058460ff16901b1784613bea90919063ffffffff16565b613a6681600185613c2a9092919063ffffffff16565b50613b39565b61ffff8111613aae57613a92601960058460ff16901b1784613bea90919063ffffffff16565b613aa881600285613c2a9092919063ffffffff16565b50613b38565b63ffffffff8111613af257613ad6601a60058460ff16901b1784613bea90919063ffffffff16565b613aec81600485613c2a9092919063ffffffff16565b50613b37565b67ffffffffffffffff8111613b3657613b1e601b60058460ff16901b1784613bea90919063ffffffff16565b613b3481600885613c2a9092919063ffffffff16565b505b5b5b5b5b505050565b613b47613db8565b82602001518360000151518351011115613b7757613b76836002613b7086602001518651613c91565b02613cad565b5b60008060008451905085518051602081830101945086518101825260208701935050505b60208110613bbe5781518352602083019250602082019150602081039050613b9b565b60006001826020036101000a039050801983511681855116818117865250508694505050505092915050565b81602001516001836000015151011115613c1057613c0f826002846020015102613cad565b5b815180516020818301018381536001820183525050505050565b613c32613db8565b836020015184600001515183011115613c6057613c5f846002613c59876020015186613c91565b02613cad565b5b60006001836101000a0390508451805184818301018684198251161781528582018352505050849150509392505050565b600081831115613ca357829050613ca7565b8190505b92915050565b606082600001519050613cc08383613953565b613cca8382613b3f565b50505050565b6040518060800160405280600073ffffffffffffffffffffffffffffffffffffffff1681526020016000801916815260200160008152602001600081525090565b60405180608001604052806004905b6060815260200190600190039081613d205790505090565b828054600181600116156101000203166002900490600052602060002090601f016020900481019282601f10613d7957805160ff1916838001178555613da7565b82800160010185558215613da7579182015b82811115613da6578251825591602001919060010190613d8b565b5b509050613db49190613dd2565b5090565b604051806040016040528060608152602001600081525090565b613df491905b80821115613df0576000816000905550600101613dd8565b5090565b9056fe5468652070726f6f6620766572696669636174696f6e20686173206661696c6564216265742063616e277420626520686967686572207468616e2062616c616e6365206f6620646170707fb956469c5c9b89840d55b43537e66a98dd4811ea0a27224272c2e5622911e8537a2f8e86a46baec82864e98dd01e9ccc2f8bc5dfc9cbe5a91a290498dd96e450726f7661626c65207175657279207761732073656e742c207374616e64696e6720627920666f722074686520616e737765722e2e2e626574206d75737420626520686967686572207468616e20302e31206574686572a265627a7a72315820c7b7ef94d7569b6c55f93089cf120b78e628a0d19d34d05aaa80d5a38fdda6b964736f6c634300050c0032",
  "source": "import \"./Ownable.sol\";\r\nimport \"./provableAPI.sol\";\r\npragma solidity >= 0.5.12;\r\n\r\ncontract RockPaperScissors is Ownable, usingProvable {\r\n\r\n    //uint balance;\r\n    uint256 constant NUM_RANDOM_BYTES_REQUESTED = 1\r\n    ;\r\n    struct Player {\r\n        address addr;\r\n        bytes32 id;\r\n        uint bet;\r\n        uint amount;\r\n    }\r\n\r\n    mapping (bytes32 => Player) players;\r\n    mapping (address => bool) waitingList;\r\n    mapping (bytes32 => bool) pendingQueries;\r\n    mapping (address => uint256) balances;\r\n\r\n    event LogNewProvableQuery(string description);\r\n    event ProvableQueryProofVerify(string description);\r\n    event LogQueryId(bytes32 queryId);\r\n    event ResultOfTheGame(bytes32 indexed myid, string description, bool win, uint256 prize);\r\n\r\n    //BET: 0 = \"rock\"\r\n    //     1 = \"paper\"\r\n    //     2 = \"scissors\" \r\n\r\n    constructor() public payable {\r\n        //balance = msg.value;\r\n        provable_setProof(proofType_Ledger);\r\n    }\r\n\r\n    function bet(uint _bet) public payable {\r\n        require(msg.value >= 0.1 ether, \"bet must be higher than 0.1 ether\");\r\n        require(msg.value <= address(this).balance, \"bet can't be higher than balance of dapp\");\r\n        require(waitingList[msg.sender] == false);\r\n        \r\n        //sending a query for random number\r\n        bytes32 queryId = queryRandomNumber();\r\n        emit LogQueryId(queryId);\r\n\r\n        //setting a new bet\r\n        Player memory newPlayer;\r\n        newPlayer.addr = msg.sender;\r\n        newPlayer.id = queryId;\r\n        newPlayer.bet = _bet;\r\n        newPlayer.amount = msg.value;\r\n\r\n        players[queryId] = newPlayer;\r\n    } \r\n\r\n    function queryRandomNumber() private returns(bytes32) {\r\n        uint256 QUERY_EXECUTION_DELAY = 0;\r\n        uint256 GAS_FOR_CALLBACK = 200000;\r\n        bytes32 _queryId = provable_newRandomDSQuery(\r\n            QUERY_EXECUTION_DELAY,\r\n            NUM_RANDOM_BYTES_REQUESTED,\r\n            GAS_FOR_CALLBACK\r\n            );\r\n        pendingQueries[_queryId] = true;\r\n        emit LogNewProvableQuery(\"Provable query was sent, standing by for the answer...\");\r\n        return _queryId;\r\n    }\r\n\r\n    function __callback(bytes32 _myid, string memory _result, bytes memory _proof) public {\r\n        require (msg.sender == provable_cbAddress());\r\n        require (pendingQueries[_myid] == true);\r\n        if (provable_randomDS_proofVerify__returnCode(_myid, _result, _proof) != 0) {\r\n            emit ProvableQueryProofVerify(\"The proof verification has failed!\");\r\n        } else {\r\n            uint randomNumber = uint256(keccak256(abi.encodePacked(_result)))%3;\r\n            _verifyResult(_myid, randomNumber);\r\n        }  \r\n    }\r\n\r\n    function _verifyResult(bytes32 id, uint256 randomNumber) private {\r\n        //player wins\r\n        if ((players[id].bet == 0 && randomNumber == 2) \r\n        || (players[id].bet == 1 && randomNumber == 0)\r\n        || (players[id].bet == 2 && randomNumber == 1)) {\r\n            balances[players[id].addr] = 2*players[id].amount;\r\n            emit  ResultOfTheGame(id, \"won\", true, balances[players[id].addr]);\r\n        }\r\n        //player looses\r\n        else if ((players[id].bet == 0 && randomNumber == 1) \r\n        || (players[id].bet == 1 && randomNumber == 2)\r\n        || (players[id].bet == 2 && randomNumber == 0)) {\r\n            emit  ResultOfTheGame(id, \"lost\", false, balances[players[id].addr]);    \r\n        }\r\n        //remis\r\n        else {\r\n            //play another game\r\n            queryRandomNumber();\r\n            emit  ResultOfTheGame(id, \"draw\", false, balances[players[id].addr]);\r\n        }\r\n        \r\n        delete pendingQueries[id];\r\n        delete players[id];\r\n    }\r\n\r\n    //function newBet(uint256 _newbet) public {\r\n\r\n    //}\r\n\r\n    function withdrawBalance () external returns(uint256) {\r\n        require(balances[msg.sender] > 0);\r\n        uint256 toTransfer = balances[msg.sender];\r\n\r\n        delete balances[msg.sender];\r\n        delete waitingList[msg.sender];\r\n        msg.sender.transfer(toTransfer);\r\n        assert(balances[msg.sender] == 0);\r\n       \r\n        return toTransfer;\r\n    }\r\n\r\n    function kill() public onlyOwner() {\r\n        selfdestruct(msg.sender);\r\n    }\r\n}",
  "sourcePath": "C:/Users/Admin/Documents/Ethereum course 201/RockPaperScissors/contracts/RockPaperScissors.sol",
  "compiler": {
    "name": "solc",
    "version": "0.5.12+commit.7709ece9.Emscripten.clang"
  },
  "schemaVersion": "3.0.16",
  "updatedAt": "2020-11-13T00:47:47.047Z",
  "devdoc": {
    "methods": {
      "__callback(bytes32,string)": {
        "details": "The following `__callback` functions are just placeholders ideally     meant to be defined in child contract when proofs are used.     The function bodies simply silence compiler warnings."
      }
    }
  },
  "userdoc": {
    "methods": {}
  }
}