{
  "contractName": "RockPaperScissors",
  "abi": [
    {
      "inputs": [],
      "payable": true,
      "stateMutability": "payable",
      "type": "constructor"
    },
    {
      "anonymous": false,
      "inputs": [
        {
          "indexed": false,
          "internalType": "string",
          "name": "description",
          "type": "string"
        }
      ],
      "name": "LogNewProvableQuery",
      "type": "event"
    },
    {
      "anonymous": false,
      "inputs": [
        {
          "indexed": false,
          "internalType": "bytes32",
          "name": "queryId",
          "type": "bytes32"
        }
      ],
      "name": "LogQueryId",
      "type": "event"
    },
    {
      "anonymous": false,
      "inputs": [
        {
          "indexed": false,
          "internalType": "uint256",
          "name": "number",
          "type": "uint256"
        }
      ],
      "name": "LogRandomNumber",
      "type": "event"
    },
    {
      "anonymous": false,
      "inputs": [
        {
          "indexed": false,
          "internalType": "string",
          "name": "description",
          "type": "string"
        }
      ],
      "name": "ProvableQueryProofVerify",
      "type": "event"
    },
    {
      "anonymous": false,
      "inputs": [
        {
          "indexed": true,
          "internalType": "bytes32",
          "name": "myid",
          "type": "bytes32"
        },
        {
          "indexed": false,
          "internalType": "string",
          "name": "description",
          "type": "string"
        },
        {
          "indexed": false,
          "internalType": "bool",
          "name": "win",
          "type": "bool"
        },
        {
          "indexed": false,
          "internalType": "uint256",
          "name": "prize",
          "type": "uint256"
        }
      ],
      "name": "ResultOfTheGame",
      "type": "event"
    },
    {
      "constant": false,
      "inputs": [
        {
          "internalType": "uint256",
          "name": "_bet",
          "type": "uint256"
        }
      ],
      "name": "bet",
      "outputs": [],
      "payable": true,
      "stateMutability": "payable",
      "type": "function"
    },
    {
      "constant": false,
      "inputs": [
        {
          "internalType": "bytes32",
          "name": "_myid",
          "type": "bytes32"
        },
        {
          "internalType": "string",
          "name": "_result",
          "type": "string"
        }
      ],
      "name": "__callback",
      "outputs": [],
      "payable": false,
      "stateMutability": "nonpayable",
      "type": "function"
    },
    {
      "constant": false,
      "inputs": [
        {
          "internalType": "bytes32",
          "name": "_myid",
          "type": "bytes32"
        },
        {
          "internalType": "string",
          "name": "_result",
          "type": "string"
        },
        {
          "internalType": "bytes",
          "name": "_proof",
          "type": "bytes"
        }
      ],
      "name": "__callback",
      "outputs": [],
      "payable": false,
      "stateMutability": "nonpayable",
      "type": "function"
    },
    {
      "constant": false,
      "inputs": [],
      "name": "withdrawBalance",
      "outputs": [
        {
          "internalType": "uint256",
          "name": "",
          "type": "uint256"
        }
      ],
      "payable": false,
      "stateMutability": "nonpayable",
      "type": "function"
    },
    {
      "constant": false,
      "inputs": [],
      "name": "kill",
      "outputs": [],
      "payable": false,
      "stateMutability": "nonpayable",
      "type": "function"
    }
  ],
  "bytecode": "0x6080604052336000806101000a81548173ffffffffffffffffffffffffffffffffffffffff021916908373ffffffffffffffffffffffffffffffffffffffff16021790555062000059603060f81b6200005f60201b60201c565b62000a83565b600073ffffffffffffffffffffffffffffffffffffffff16600260009054906101000a900473ffffffffffffffffffffffffffffffffffffffff1673ffffffffffffffffffffffffffffffffffffffff161480620000ef57506000620000ed600260009054906101000a900473ffffffffffffffffffffffffffffffffffffffff16620003c560201b60201c565b145b156200010957620001076000620003d060201b60201c565b505b600260009054906101000a900473ffffffffffffffffffffffffffffffffffffffff1673ffffffffffffffffffffffffffffffffffffffff166338cc48316040518163ffffffff1660e01b8152600401602060405180830381600087803b1580156200017457600080fd5b505af115801562000189573d6000803e3d6000fd5b505050506040513d6020811015620001a057600080fd5b810190808051906020019092919050505073ffffffffffffffffffffffffffffffffffffffff16600160009054906101000a900473ffffffffffffffffffffffffffffffffffffffff1673ffffffffffffffffffffffffffffffffffffffff1614620002ef57600260009054906101000a900473ffffffffffffffffffffffffffffffffffffffff1673ffffffffffffffffffffffffffffffffffffffff166338cc48316040518163ffffffff1660e01b8152600401602060405180830381600087803b1580156200027157600080fd5b505af115801562000286573d6000803e3d6000fd5b505050506040513d60208110156200029d57600080fd5b8101908080519060200190929190505050600160006101000a81548173ffffffffffffffffffffffffffffffffffffffff021916908373ffffffffffffffffffffffffffffffffffffffff1602179055505b600160009054906101000a900473ffffffffffffffffffffffffffffffffffffffff1673ffffffffffffffffffffffffffffffffffffffff1663688dcfd7826040518263ffffffff1660e01b815260040180827effffffffffffffffffffffffffffffffffffffffffffffffffffffffffffff19167effffffffffffffffffffffffffffffffffffffffffffffffffffffffffffff19168152602001915050600060405180830381600087803b158015620003a957600080fd5b505af1158015620003be573d6000803e3d6000fd5b5050505050565b6000813b9050919050565b6000620003e2620003e960201b60201c565b9050919050565b60008062000411731d3b2638a7cc9f2cb3d298a3da7a90b67e5506ed620003c560201b60201c565b1115620004bd57731d3b2638a7cc9f2cb3d298a3da7a90b67e5506ed600260006101000a81548173ffffffffffffffffffffffffffffffffffffffff021916908373ffffffffffffffffffffffffffffffffffffffff160217905550620004b36040518060400160405280600b81526020017f6574685f6d61696e6e6574000000000000000000000000000000000000000000815250620009b860201b60201c565b60019050620009b5565b6000620004e473c03a2615d5efaf5f49f60b7bb6583eaec212fdf1620003c560201b60201c565b1115620005905773c03a2615d5efaf5f49f60b7bb6583eaec212fdf1600260006101000a81548173ffffffffffffffffffffffffffffffffffffffff021916908373ffffffffffffffffffffffffffffffffffffffff160217905550620005866040518060400160405280600c81526020017f6574685f726f707374656e330000000000000000000000000000000000000000815250620009b860201b60201c565b60019050620009b5565b6000620005b773b7a07bcf2ba2f2703b24c0691b5278999c59ac7e620003c560201b60201c565b1115620006635773b7a07bcf2ba2f2703b24c0691b5278999c59ac7e600260006101000a81548173ffffffffffffffffffffffffffffffffffffffff021916908373ffffffffffffffffffffffffffffffffffffffff160217905550620006596040518060400160405280600981526020017f6574685f6b6f76616e0000000000000000000000000000000000000000000000815250620009b860201b60201c565b60019050620009b5565b60006200068a73146500cfd35b22e4a392fe0adc06de1a1368ed48620003c560201b60201c565b1115620007365773146500cfd35b22e4a392fe0adc06de1a1368ed48600260006101000a81548173ffffffffffffffffffffffffffffffffffffffff021916908373ffffffffffffffffffffffffffffffffffffffff1602179055506200072c6040518060400160405280600b81526020017f6574685f72696e6b656279000000000000000000000000000000000000000000815250620009b860201b60201c565b60019050620009b5565b60006200075d73a2998efd205fb9d4b4963afb70778d6354ad3a41620003c560201b60201c565b1115620008095773a2998efd205fb9d4b4963afb70778d6354ad3a41600260006101000a81548173ffffffffffffffffffffffffffffffffffffffff021916908373ffffffffffffffffffffffffffffffffffffffff160217905550620007ff6040518060400160405280600a81526020017f6574685f676f65726c6900000000000000000000000000000000000000000000815250620009b860201b60201c565b60019050620009b5565b600062000830736f485c8bf6fc43ea212e93bbf8ce046c7f1cb475620003c560201b60201c565b11156200089657736f485c8bf6fc43ea212e93bbf8ce046c7f1cb475600260006101000a81548173ffffffffffffffffffffffffffffffffffffffff021916908373ffffffffffffffffffffffffffffffffffffffff16021790555060019050620009b5565b6000620008bd7320e12a1f859b3feae5fb2a0a32c18f5a65555bbf620003c560201b60201c565b111562000923577320e12a1f859b3feae5fb2a0a32c18f5a65555bbf600260006101000a81548173ffffffffffffffffffffffffffffffffffffffff021916908373ffffffffffffffffffffffffffffffffffffffff16021790555060019050620009b5565b60006200094a7351efaf4c8b3c9afbd5ab9f4bbc82784ab6ef8faa620003c560201b60201c565b1115620009b0577351efaf4c8b3c9afbd5ab9f4bbc82784ab6ef8faa600260006101000a81548173ffffffffffffffffffffffffffffffffffffffff021916908373ffffffffffffffffffffffffffffffffffffffff16021790555060019050620009b5565b600090505b90565b8060039080519060200190620009d0929190620009d4565b5050565b828054600181600116156101000203166002900490600052602060002090601f016020900481019282601f1062000a1757805160ff191683800117855562000a48565b8280016001018555821562000a48579182015b8281111562000a4757825182559160200191906001019062000a2a565b5b50905062000a57919062000a5b565b5090565b62000a8091905b8082111562000a7c57600081600090555060010162000a62565b5090565b90565b613f448062000a936000396000f3fe60806040526004361061004a5760003560e01c806327dc297e1461004f57806338bbfa501461012157806341c0e1b51461028a5780635fd8c710146102a15780637365870b146102cc575b600080fd5b34801561005b57600080fd5b5061011f6004803603604081101561007257600080fd5b81019080803590602001909291908035906020019064010000000081111561009957600080fd5b8201836020820111156100ab57600080fd5b803590602001918460018302840111640100000000831117156100cd57600080fd5b91908080601f016020809104026020016040519081016040528093929190818152602001838380828437600081840152601f19601f8201169050808301925050505050505091929192905050506102fa565b005b34801561012d57600080fd5b506102886004803603606081101561014457600080fd5b81019080803590602001909291908035906020019064010000000081111561016b57600080fd5b82018360208201111561017d57600080fd5b8035906020019184600183028401116401000000008311171561019f57600080fd5b91908080601f016020809104026020016040519081016040528093929190818152602001838380828437600081840152601f19601f8201169050808301925050505050505091929192908035906020019064010000000081111561020257600080fd5b82018360208201111561021457600080fd5b8035906020019184600183028401116401000000008311171561023657600080fd5b91908080601f016020809104026020016040519081016040528093929190818152602001838380828437600081840152601f19601f82011690508083019250505050505050919291929050505061033d565b005b34801561029657600080fd5b5061029f6104dd565b005b3480156102ad57600080fd5b506102b661054f565b6040518082815260200191505060405180910390f35b6102f8600480360360208110156102e257600080fd5b8101908080359060200190929190505050610709565b005b610339828260006040519080825280601f01601f1916602001820160405280156103335781602001600182028038833980820191505090505b5061033d565b5050565b610345610959565b73ffffffffffffffffffffffffffffffffffffffff163373ffffffffffffffffffffffffffffffffffffffff161461037c57600080fd5b600115156008600085815260200190815260200160002060009054906101000a900460ff161515146103ad57600080fd5b60006103ba848484610c79565b60ff1614610412577fc45a5dff3ba756b8c4d8704e66fafa0109698d3d0e4137d959197ef82d714a93604051808060200182810382526022815260200180613e2f6022913960400191505060405180910390a16104d8565b60006003836040516020018082805190602001908083835b6020831061044d578051825260208201915060208101905060208303925061042a565b6001836020036101000a0380198251168184511680821785525050505050509050019150506040516020818303038152906040528051906020012060001c8161049257fe5b06905061049f8482610da9565b7f4034cea00588331775106b3bb0531716336a0091d3134d70f70abc1208b4070b816040518082815260200191505060405180910390a1505b505050565b6000809054906101000a900473ffffffffffffffffffffffffffffffffffffffff1673ffffffffffffffffffffffffffffffffffffffff163373ffffffffffffffffffffffffffffffffffffffff161461053657600080fd5b3373ffffffffffffffffffffffffffffffffffffffff16ff5b600080600960003373ffffffffffffffffffffffffffffffffffffffff1673ffffffffffffffffffffffffffffffffffffffff168152602001908152602001600020541161059c57600080fd5b6000600960003373ffffffffffffffffffffffffffffffffffffffff1673ffffffffffffffffffffffffffffffffffffffff168152602001908152602001600020549050600960003373ffffffffffffffffffffffffffffffffffffffff1673ffffffffffffffffffffffffffffffffffffffff16815260200190815260200160002060009055600760003373ffffffffffffffffffffffffffffffffffffffff1673ffffffffffffffffffffffffffffffffffffffff16815260200190815260200160002060006101000a81549060ff02191690553373ffffffffffffffffffffffffffffffffffffffff166108fc829081150290604051600060405180830381858888f193505050501580156106b8573d6000803e3d6000fd5b506000600960003373ffffffffffffffffffffffffffffffffffffffff1673ffffffffffffffffffffffffffffffffffffffff168152602001908152602001600020541461070257fe5b8091505090565b67016345785d8a000034101561076a576040517f08c379a0000000000000000000000000000000000000000000000000000000008152600401808060200182810382526021815260200180613eef6021913960400191505060405180910390fd5b3073ffffffffffffffffffffffffffffffffffffffff16313411156107da576040517f08c379a0000000000000000000000000000000000000000000000000000000008152600401808060200182810382526028815260200180613e516028913960400191505060405180910390fd5b60001515600760003373ffffffffffffffffffffffffffffffffffffffff1673ffffffffffffffffffffffffffffffffffffffff16815260200190815260200160002060009054906101000a900460ff1615151461083757600080fd5b60006108416112b0565b90507fba5c08e7ca16d504b0119b4b9e09b27a571d73bf338d327cfbbe54b0b55ff88d816040518082815260200191505060405180910390a1610882613d07565b33816000019073ffffffffffffffffffffffffffffffffffffffff16908173ffffffffffffffffffffffffffffffffffffffff1681525050818160200181815250508281604001818152505034816060018181525050806006600084815260200190815260200160002060008201518160000160006101000a81548173ffffffffffffffffffffffffffffffffffffffff021916908373ffffffffffffffffffffffffffffffffffffffff160217905550602082015181600101556040820151816002015560608201518160030155905050505050565b60008073ffffffffffffffffffffffffffffffffffffffff16600260009054906101000a900473ffffffffffffffffffffffffffffffffffffffff1673ffffffffffffffffffffffffffffffffffffffff1614806109e1575060006109df600260009054906101000a900473ffffffffffffffffffffffffffffffffffffffff1661134f565b145b156109f2576109f0600061135a565b505b600260009054906101000a900473ffffffffffffffffffffffffffffffffffffffff1673ffffffffffffffffffffffffffffffffffffffff166338cc48316040518163ffffffff1660e01b8152600401602060405180830381600087803b158015610a5c57600080fd5b505af1158015610a70573d6000803e3d6000fd5b505050506040513d6020811015610a8657600080fd5b810190808051906020019092919050505073ffffffffffffffffffffffffffffffffffffffff16600160009054906101000a900473ffffffffffffffffffffffffffffffffffffffff1673ffffffffffffffffffffffffffffffffffffffff1614610bd157600260009054906101000a900473ffffffffffffffffffffffffffffffffffffffff1673ffffffffffffffffffffffffffffffffffffffff166338cc48316040518163ffffffff1660e01b8152600401602060405180830381600087803b158015610b5557600080fd5b505af1158015610b69573d6000803e3d6000fd5b505050506040513d6020811015610b7f57600080fd5b8101908080519060200190929190505050600160006101000a81548173ffffffffffffffffffffffffffffffffffffffff021916908373ffffffffffffffffffffffffffffffffffffffff1602179055505b600160009054906101000a900473ffffffffffffffffffffffffffffffffffffffff1673ffffffffffffffffffffffffffffffffffffffff1663c281d19e6040518163ffffffff1660e01b815260040160206040518083038186803b158015610c3957600080fd5b505afa158015610c4d573d6000803e3d6000fd5b505050506040513d6020811015610c6357600080fd5b8101908080519060200190929190505050905090565b60007f4c0000000000000000000000000000000000000000000000000000000000000082600081518110610ca957fe5b602001015160f81c60f81b7effffffffffffffffffffffffffffffffffffffffffffffffffffffffffffff1916141580610d3c57507f500000000000000000000000000000000000000000000000000000000000000082600181518110610d0c57fe5b602001015160f81c60f81b7effffffffffffffffffffffffffffffffffffffffffffffffffffffffffffff191614155b80610d685750600160ff1682600281518110610d5457fe5b602001015160f81c60f81b60f81c60ff1614155b15610d765760019050610da2565b6000610d8b838686610d8661136b565b61140d565b905080610d9c576002915050610da2565b60009150505b9392505050565b60006006600084815260200190815260200160002060020154148015610dcf5750600281145b80610dfc575060016006600084815260200190815260200160002060020154148015610dfb5750600081145b5b80610e29575060026006600084815260200190815260200160002060020154148015610e285750600181145b5b15610fb9576006600083815260200190815260200160002060030154600202600960006006600086815260200190815260200160002060000160009054906101000a900473ffffffffffffffffffffffffffffffffffffffff1673ffffffffffffffffffffffffffffffffffffffff1673ffffffffffffffffffffffffffffffffffffffff16815260200190815260200160002081905550817fd9408e3bd81f175726045630b32722a7624ed5a66f4cab78e49224b8713dbc3b6001600960006006600088815260200190815260200160002060000160009054906101000a900473ffffffffffffffffffffffffffffffffffffffff1673ffffffffffffffffffffffffffffffffffffffff1673ffffffffffffffffffffffffffffffffffffffff16815260200190815260200160002054604051808060200184151515158152602001838152602001828103825260038152602001807f776f6e0000000000000000000000000000000000000000000000000000000000815250602001935050505060405180910390a2611234565b60006006600084815260200190815260200160002060020154148015610fdf5750600181145b8061100c57506001600660008481526020019081526020016000206002015414801561100b5750600281145b5b806110395750600260066000848152602001908152602001600020600201541480156110385750600081145b5b1561113657817fd9408e3bd81f175726045630b32722a7624ed5a66f4cab78e49224b8713dbc3b6000600960006006600088815260200190815260200160002060000160009054906101000a900473ffffffffffffffffffffffffffffffffffffffff1673ffffffffffffffffffffffffffffffffffffffff1673ffffffffffffffffffffffffffffffffffffffff16815260200190815260200160002054604051808060200184151515158152602001838152602001828103825260048152602001807f6c6f737400000000000000000000000000000000000000000000000000000000815250602001935050505060405180910390a2611233565b61113e6112b0565b50817fd9408e3bd81f175726045630b32722a7624ed5a66f4cab78e49224b8713dbc3b6000600960006006600088815260200190815260200160002060000160009054906101000a900473ffffffffffffffffffffffffffffffffffffffff1673ffffffffffffffffffffffffffffffffffffffff1673ffffffffffffffffffffffffffffffffffffffff16815260200190815260200160002054604051808060200184151515158152602001838152602001828103825260048152602001807f6472617700000000000000000000000000000000000000000000000000000000815250602001935050505060405180910390a25b5b6008600083815260200190815260200160002060006101000a81549060ff021916905560066000838152602001908152602001600020600080820160006101000a81549073ffffffffffffffffffffffffffffffffffffffff021916905560018201600090556002820160009055600382016000905550505050565b600080600090506000620927c0905060006112cd83600184611ab8565b905060016008600083815260200190815260200160002060006101000a81548160ff0219169083151502179055507fc4dc360d0a9c0677a3379ae0a3d81e887f761e65fdf3d7e00859d1bcd3c47389604051808060200182810382526036815260200180613eb96036913960400191505060405180910390a180935050505090565b6000813b9050919050565b6000611364612053565b9050919050565b606060038054600181600116156101000203166002900480601f0160208091040260200160405190810160405280929190818152602001828054600181600116156101000203166002900480156114035780601f106113d857610100808354040283529160200191611403565b820191906000526020600020905b8154815290600101906020018083116113e657829003601f168201915b5050505050905090565b600080602060028760458151811061142157fe5b602001015160f81c60f81b60f81c60ff1601604401019050606060206040519080825280601f01601f19166020018201604052801561146f5781602001600182028038833980820191505090505b509050611481878360208460006125aa565b50600284876040516020018083805190602001908083835b602083106114bc5780518252602082019150602081019050602083039250611499565b6001836020036101000a038019825116818451168082178552505050505050905001828152602001925050506040516020818303038152906040526040518082805190602001908083835b6020831061152a5780518252602082019150602081019050602083039250611507565b6001836020036101000a038019825116818451168082178552505050505050905001915050602060405180830381855afa15801561156c573d6000803e3d6000fd5b5050506040513d602081101561158157600080fd5b810190808051906020019092919050505060405160200180828152602001915050604051602081830303815290604052805190602001208180519060200120146115d057600092505050611ab0565b606060028860016049860101815181106115e657fe5b602001015160f81c60f81b60f81c60ff16016040519080825280601f01601f19166020018201604052801561162a5781602001600182028038833980820191505090505b50905061163f886049850183518460006125aa565b5061170a6002826040518082805190602001908083835b602083106116795780518252602082019150602081019050602083039250611656565b6001836020036101000a038019825116818451168082178552505050505050905001915050602060405180830381855afa1580156116bb573d6000803e3d6000fd5b5050506040513d60208110156116d057600080fd5b8101908080519060200190929190505050878a60086020880101815181106116f457fe5b602001015160f81c60f81b60f81c60ff16612609565b61171a5760009350505050611ab0565b606060296040519080825280601f01601f1916602001820160405280156117505781602001600182028038833980820191505090505b509050611765896020860160298460006125aa565b506060604080519080825280601f01601f19166020018201604052801561179b5781602001600182028038833980820191505090505b50905060006041845160296020890101010190506117c18b6040830360408560006125aa565b5060006002836040518082805190602001908083835b602083106117fa57805182526020820191506020810190506020830392506117d7565b6001836020036101000a038019825116818451168082178552505050505050905001915050602060405180830381855afa15801561183c573d6000803e3d6000fd5b5050506040513d602081101561185157600080fd5b8101908080519060200190929190505050905083816040516020018083805190602001908083835b6020831061189c5780518252602082019150602081019050602083039250611879565b6001836020036101000a0380198251168184511680821785525050505050509050018281526020019250505060405160208183030381529060405280519060200120600460008d815260200190815260200160002054141561191457600460008c815260200190815260200160002060009055611924565b6000975050505050505050611ab0565b606060496040519080825280601f01601f19166020018201604052801561195a5781602001600182028038833980820191505090505b50905061196c8d8960498460006125aa565b50611a156002826040518082805190602001908083835b602083106119a65780518252602082019150602081019050602083039250611983565b6001836020036101000a038019825116818451168082178552505050505050905001915050602060405180830381855afa1580156119e8573d6000803e3d6000fd5b5050506040513d60208110156119fd57600080fd5b810190808051906020019092919050505087866126b9565b611a2a57600098505050505050505050611ab0565b6005600083815260200190815260200160002060009054906101000a900460ff16611a8457611a598d84612877565b6005600084815260200190815260200160002060006101000a81548160ff0219169083151502179055505b6005600083815260200190815260200160002060009054906101000a900460ff16985050505050505050505b949350505050565b60008083118015611aca575060208311155b611ad357600080fd5b600a84029350606060016040519080825280601f01601f191660200182016040528015611b0f5781602001600182028038833980820191505090505b5090508360f81b81600081518110611b2357fe5b60200101907effffffffffffffffffffffffffffffffffffffffffffffffffffffffffffff1916908160001a905350606060206040519080825280601f01601f191660200182016040528015611b885781602001600182028038833980820191505090505b509050606060206040519080825280601f01601f191660200182016040528015611bc15781602001600182028038833980820191505090505b5090506000611bce612c8f565b905060208352424118600143034018602084015260208252806020830152606060206040519080825280601f01601f191660200182016040528015611c225781602001600182028038833980820191505090505b509050886020820152606060086040519080825280601f01601f191660200182016040528015611c615781602001600182028038833980820191505090505b509050611c7482601860088460006125aa565b50611c7d613d48565b60405180608001604052808781526020018881526020018681526020018481525090506000611ce26040518060400160405280600681526020017f72616e646f6d0000000000000000000000000000000000000000000000000000815250838c612faf565b9050606060086040519080825280601f01601f191660200182016040528015611d1a5781602001600182028038833980820191505090505b50905060208401517f0100000000000000000000000000000000000000000000000000000000000000810460278301537e01000000000000000000000000000000000000000000000000000000000000810460268301537d010000000000000000000000000000000000000000000000000000000000810460258301537c0100000000000000000000000000000000000000000000000000000000810460248301537b01000000000000000000000000000000000000000000000000000000810460238301537a010000000000000000000000000000000000000000000000000000810460228301537901000000000000000000000000000000000000000000000000008104602183015378010000000000000000000000000000000000000000000000008104602083015350612040828285600160048110611e5957fe5b6020020151600287600060048110611e6d57fe5b60200201516040518082805190602001908083835b60208310611ea55780518252602082019150602081019050602083039250611e82565b6001836020036101000a038019825116818451168082178552505050505050905001915050602060405180830381855afa158015611ee7573d6000803e3d6000fd5b5050506040513d6020811015611efc57600080fd5b810190808051906020019092919050505087600260048110611f1a57fe5b60200201516040516020018085805190602001908083835b60208310611f555780518252602082019150602081019050602083039250611f32565b6001836020036101000a03801982511681845116808217855250505050505090500184805190602001908083835b60208310611fa65780518252602082019150602081019050602083039250611f83565b6001836020036101000a03801982511681845116808217855250505050505090500183815260200182805190602001908083835b60208310611ffd5780518252602082019150602081019050602083039250611fda565b6001836020036101000a0380198251168184511680821785525050505050509050019450505050506040516020818303038152906040528051906020012061331e565b8199505050505050505050509392505050565b600080612073731d3b2638a7cc9f2cb3d298a3da7a90b67e5506ed61134f565b111561211557731d3b2638a7cc9f2cb3d298a3da7a90b67e5506ed600260006101000a81548173ffffffffffffffffffffffffffffffffffffffff021916908373ffffffffffffffffffffffffffffffffffffffff16021790555061210c6040518060400160405280600b81526020017f6574685f6d61696e6e657400000000000000000000000000000000000000000081525061333a565b600190506125a7565b600061213473c03a2615d5efaf5f49f60b7bb6583eaec212fdf161134f565b11156121d65773c03a2615d5efaf5f49f60b7bb6583eaec212fdf1600260006101000a81548173ffffffffffffffffffffffffffffffffffffffff021916908373ffffffffffffffffffffffffffffffffffffffff1602179055506121cd6040518060400160405280600c81526020017f6574685f726f707374656e33000000000000000000000000000000000000000081525061333a565b600190506125a7565b60006121f573b7a07bcf2ba2f2703b24c0691b5278999c59ac7e61134f565b11156122975773b7a07bcf2ba2f2703b24c0691b5278999c59ac7e600260006101000a81548173ffffffffffffffffffffffffffffffffffffffff021916908373ffffffffffffffffffffffffffffffffffffffff16021790555061228e6040518060400160405280600981526020017f6574685f6b6f76616e000000000000000000000000000000000000000000000081525061333a565b600190506125a7565b60006122b673146500cfd35b22e4a392fe0adc06de1a1368ed4861134f565b11156123585773146500cfd35b22e4a392fe0adc06de1a1368ed48600260006101000a81548173ffffffffffffffffffffffffffffffffffffffff021916908373ffffffffffffffffffffffffffffffffffffffff16021790555061234f6040518060400160405280600b81526020017f6574685f72696e6b65627900000000000000000000000000000000000000000081525061333a565b600190506125a7565b600061237773a2998efd205fb9d4b4963afb70778d6354ad3a4161134f565b11156124195773a2998efd205fb9d4b4963afb70778d6354ad3a41600260006101000a81548173ffffffffffffffffffffffffffffffffffffffff021916908373ffffffffffffffffffffffffffffffffffffffff1602179055506124106040518060400160405280600a81526020017f6574685f676f65726c690000000000000000000000000000000000000000000081525061333a565b600190506125a7565b6000612438736f485c8bf6fc43ea212e93bbf8ce046c7f1cb47561134f565b111561249c57736f485c8bf6fc43ea212e93bbf8ce046c7f1cb475600260006101000a81548173ffffffffffffffffffffffffffffffffffffffff021916908373ffffffffffffffffffffffffffffffffffffffff160217905550600190506125a7565b60006124bb7320e12a1f859b3feae5fb2a0a32c18f5a65555bbf61134f565b111561251f577320e12a1f859b3feae5fb2a0a32c18f5a65555bbf600260006101000a81548173ffffffffffffffffffffffffffffffffffffffff021916908373ffffffffffffffffffffffffffffffffffffffff160217905550600190506125a7565b600061253e7351efaf4c8b3c9afbd5ab9f4bbc82784ab6ef8faa61134f565b11156125a2577351efaf4c8b3c9afbd5ab9f4bbc82784ab6ef8faa600260006101000a81548173ffffffffffffffffffffffffffffffffffffffff021916908373ffffffffffffffffffffffffffffffffffffffff160217905550600190506125a7565b600090505b90565b60606000828501905080845110156125c157600080fd5b600086602001905060008460200190505b8688602001018210156125fa57818901518082880152506020820191506020810190506125d2565b85935050505095945050505050565b600080600190508284511461261d57600080fd5b60008090505b838110156126ad5784818151811061263757fe5b602001015160f81c60f81b7effffffffffffffffffffffffffffffffffffffffffffffffffffffffffffff191686826020811061267057fe5b1a60f81b7effffffffffffffffffffffffffffffffffffffffffffffffffffffffffffff1916146126a057600091505b8080600101915050612623565b50809150509392505050565b6000806000806000606060206040519080825280601f01601f1916602001820160405280156126f75781602001600182028038833980820191505090505b509050600060208960038151811061270b57fe5b602001015160f81c60f81b60f81c60ff16036004019050612731898260208560006125aa565b9150606060206040519080825280601f01601f1916602001820160405280156127695781602001600182028038833980820191505090505b5090506022820191506127a58a60208c600186038151811061278757fe5b602001015160f81c60f81b60f81c60ff1603840160208460006125aa565b905060208301519450602081015193506127c28b601b8787613354565b80975081985050508573ffffffffffffffffffffffffffffffffffffffff16898051906020012060001c73ffffffffffffffffffffffffffffffffffffffff161415612818576001975050505050505050612870565b6128258b601c8787613354565b80975081985050508573ffffffffffffffffffffffffffffffffffffffff16898051906020012060001c73ffffffffffffffffffffffffffffffffffffffff16149750505050505050505b9392505050565b6000806060600285600186018151811061288d57fe5b602001015160f81c60f81b60f81c60ff16016040519080825280601f01601f1916602001820160405280156128d15781602001600182028038833980820191505090505b5090506128e3858583518460006125aa565b506060604080519080825280601f01601f1916602001820160405280156129195781602001600182028038833980820191505090505b50905061292c86600460408460006125aa565b50606060626040519080825280601f01601f1916602001820160405280156129635781602001600182028038833980820191505090505b509050600160f81b8160008151811061297857fe5b60200101907effffffffffffffffffffffffffffffffffffffffffffffffffffffffffffff1916908160001a9053506129b9876041880360418460016125aa565b5060606040518060400160405280602081526020017ffd94fa71bc0ba10d39d464d0d8f465efeef0a2764e3887fcc9df41ded20f505c8152509050612a0481600060208560426125aa565b50612aad6002836040518082805190602001908083835b60208310612a3e5780518252602082019150602081019050602083039250612a1b565b6001836020036101000a038019825116818451168082178552505050505050905001915050602060405180830381855afa158015612a80573d6000803e3d6000fd5b5050506040513d6020811015612a9557600080fd5b810190808051906020019092919050505085856126b9565b945084612ac257600095505050505050612c89565b6060604051806060016040528060408152602001613e79604091399050606060426040519080825280601f01601f191660200182016040528015612b155781602001600182028038833980820191505090505b50905060fe60f81b81600081518110612b2a57fe5b60200101907effffffffffffffffffffffffffffffffffffffffffffffffffffffffffffff1916908160001a905350612b698a600360418460016125aa565b50606060028b604581518110612b7b57fe5b602001015160f81c60f81b60f81c60ff16016040519080825280601f01601f191660200182016040528015612bbf5781602001600182028038833980820191505090505b509050612bd28b604483518460006125aa565b50612c7b6002836040518082805190602001908083835b60208310612c0c5780518252602082019150602081019050602083039250612be9565b6001836020036101000a038019825116818451168082178552505050505050905001915050602060405180830381855afa158015612c4e573d6000803e3d6000fd5b5050506040513d6020811015612c6357600080fd5b810190808051906020019092919050505082856126b9565b975087985050505050505050505b92915050565b60008073ffffffffffffffffffffffffffffffffffffffff16600260009054906101000a900473ffffffffffffffffffffffffffffffffffffffff1673ffffffffffffffffffffffffffffffffffffffff161480612d1757506000612d15600260009054906101000a900473ffffffffffffffffffffffffffffffffffffffff1661134f565b145b15612d2857612d26600061135a565b505b600260009054906101000a900473ffffffffffffffffffffffffffffffffffffffff1673ffffffffffffffffffffffffffffffffffffffff166338cc48316040518163ffffffff1660e01b8152600401602060405180830381600087803b158015612d9257600080fd5b505af1158015612da6573d6000803e3d6000fd5b505050506040513d6020811015612dbc57600080fd5b810190808051906020019092919050505073ffffffffffffffffffffffffffffffffffffffff16600160009054906101000a900473ffffffffffffffffffffffffffffffffffffffff1673ffffffffffffffffffffffffffffffffffffffff1614612f0757600260009054906101000a900473ffffffffffffffffffffffffffffffffffffffff1673ffffffffffffffffffffffffffffffffffffffff166338cc48316040518163ffffffff1660e01b8152600401602060405180830381600087803b158015612e8b57600080fd5b505af1158015612e9f573d6000803e3d6000fd5b505050506040513d6020811015612eb557600080fd5b8101908080519060200190929190505050600160006101000a81548173ffffffffffffffffffffffffffffffffffffffff021916908373ffffffffffffffffffffffffffffffffffffffff1602179055505b600160009054906101000a900473ffffffffffffffffffffffffffffffffffffffff1673ffffffffffffffffffffffffffffffffffffffff1663abaa5f3e6040518163ffffffff1660e01b815260040160206040518083038186803b158015612f6f57600080fd5b505afa158015612f83573d6000803e3d6000fd5b505050506040513d6020811015612f9957600080fd5b8101908080519060200190929190505050905090565b60008073ffffffffffffffffffffffffffffffffffffffff16600260009054906101000a900473ffffffffffffffffffffffffffffffffffffffff1673ffffffffffffffffffffffffffffffffffffffff16148061303757506000613035600260009054906101000a900473ffffffffffffffffffffffffffffffffffffffff1661134f565b145b1561304857613046600061135a565b505b600260009054906101000a900473ffffffffffffffffffffffffffffffffffffffff1673ffffffffffffffffffffffffffffffffffffffff166338cc48316040518163ffffffff1660e01b8152600401602060405180830381600087803b1580156130b257600080fd5b505af11580156130c6573d6000803e3d6000fd5b505050506040513d60208110156130dc57600080fd5b810190808051906020019092919050505073ffffffffffffffffffffffffffffffffffffffff16600160009054906101000a900473ffffffffffffffffffffffffffffffffffffffff1673ffffffffffffffffffffffffffffffffffffffff161461322757600260009054906101000a900473ffffffffffffffffffffffffffffffffffffffff1673ffffffffffffffffffffffffffffffffffffffff166338cc48316040518163ffffffff1660e01b8152600401602060405180830381600087803b1580156131ab57600080fd5b505af11580156131bf573d6000803e3d6000fd5b505050506040513d60208110156131d557600080fd5b8101908080519060200190929190505050600160006101000a81548173ffffffffffffffffffffffffffffffffffffffff021916908373ffffffffffffffffffffffffffffffffffffffff1602179055505b6060600460405190808252806020026020018201604052801561325e57816020015b60608152602001906001900390816132495790505b5090508360006004811061326e57fe5b60200201518160008151811061328057fe5b60200260200101819052508360016004811061329857fe5b6020020151816001815181106132aa57fe5b6020026020010181905250836002600481106132c257fe5b6020020151816002815181106132d457fe5b6020026020010181905250836003600481106132ec57fe5b6020020151816003815181106132fe57fe5b6020026020010181905250613314858285613398565b9150509392505050565b8060046000848152602001908152602001600020819055505050565b8060039080519060200190613350929190613d6f565b5050565b60008060008060405188815287602082015286604082015285606082015260208160808360006001610bb8f192508051915050818193509350505094509492505050565b60008073ffffffffffffffffffffffffffffffffffffffff16600260009054906101000a900473ffffffffffffffffffffffffffffffffffffffff1673ffffffffffffffffffffffffffffffffffffffff1614806134205750600061341e600260009054906101000a900473ffffffffffffffffffffffffffffffffffffffff1661134f565b145b156134315761342f600061135a565b505b600260009054906101000a900473ffffffffffffffffffffffffffffffffffffffff1673ffffffffffffffffffffffffffffffffffffffff166338cc48316040518163ffffffff1660e01b8152600401602060405180830381600087803b15801561349b57600080fd5b505af11580156134af573d6000803e3d6000fd5b505050506040513d60208110156134c557600080fd5b810190808051906020019092919050505073ffffffffffffffffffffffffffffffffffffffff16600160009054906101000a900473ffffffffffffffffffffffffffffffffffffffff1673ffffffffffffffffffffffffffffffffffffffff161461361057600260009054906101000a900473ffffffffffffffffffffffffffffffffffffffff1673ffffffffffffffffffffffffffffffffffffffff166338cc48316040518163ffffffff1660e01b8152600401602060405180830381600087803b15801561359457600080fd5b505af11580156135a8573d6000803e3d6000fd5b505050506040513d60208110156135be57600080fd5b8101908080519060200190929190505050600160006101000a81548173ffffffffffffffffffffffffffffffffffffffff021916908373ffffffffffffffffffffffffffffffffffffffff1602179055505b6000600160009054906101000a900473ffffffffffffffffffffffffffffffffffffffff1673ffffffffffffffffffffffffffffffffffffffff16632ef3accc86856040518363ffffffff1660e01b81526004018080602001838152602001828103825284818151815260200191508051906020019080838360005b838110156136a757808201518184015260208101905061368c565b50505050905090810190601f1680156136d45780820380516001836020036101000a031916815260200191505b509350505050602060405180830381600087803b1580156136f457600080fd5b505af1158015613708573d6000803e3d6000fd5b505050506040513d602081101561371e57600080fd5b81019080805190602001909291905050509050823a02670de0b6b3a764000001811115613751576000801b9150506138f7565b606061375c856138fe565b9050600160009054906101000a900473ffffffffffffffffffffffffffffffffffffffff1673ffffffffffffffffffffffffffffffffffffffff1663c55c1cb68360008985896040518663ffffffff1660e01b8152600401808581526020018060200180602001848152602001838103835286818151815260200191508051906020019080838360005b838110156138015780820151818401526020810190506137e6565b50505050905090810190601f16801561382e5780820380516001836020036101000a031916815260200191505b50838103825285818151815260200191508051906020019080838360005b8381101561386757808201518184015260208101905061384c565b50505050905090810190601f1680156138945780820380516001836020036101000a031916815260200191505b5096505050505050506020604051808303818588803b1580156138b657600080fd5b505af11580156138ca573d6000803e3d6000fd5b50505050506040513d60208110156138e157600080fd5b8101908080519060200190929190505050925050505b9392505050565b606061390861397e565b613910613def565b61391c8161040061398a565b613925816139d4565b60008090505b83518110156139675761395a84828151811061394357fe5b6020026020010151836139e290919063ffffffff16565b808060010191505061392b565b5061397181613a07565b8060000151915050919050565b60405180590338823950565b600081905060006020828161399b57fe5b06146139b457602081816139ab57fe5b06602003810190505b808360200181815250506040518084526000815281810160405250505050565b6139df816004613a15565b50565b6139ef8260028351613a36565b613a028183613b7690919063ffffffff16565b505050565b613a12816007613a15565b50565b613a32601f60058360ff16901b1783613c2190919063ffffffff16565b5050565b60178111613a6257613a5d8160058460ff16901b60ff161784613c2190919063ffffffff16565b613b71565b60ff8111613aa357613a87601860058460ff16901b1784613c2190919063ffffffff16565b613a9d81600185613c619092919063ffffffff16565b50613b70565b61ffff8111613ae557613ac9601960058460ff16901b1784613c2190919063ffffffff16565b613adf81600285613c619092919063ffffffff16565b50613b6f565b63ffffffff8111613b2957613b0d601a60058460ff16901b1784613c2190919063ffffffff16565b613b2381600485613c619092919063ffffffff16565b50613b6e565b67ffffffffffffffff8111613b6d57613b55601b60058460ff16901b1784613c2190919063ffffffff16565b613b6b81600885613c619092919063ffffffff16565b505b5b5b5b5b505050565b613b7e613def565b82602001518360000151518351011115613bae57613bad836002613ba786602001518651613cc8565b02613ce4565b5b60008060008451905085518051602081830101945086518101825260208701935050505b60208110613bf55781518352602083019250602082019150602081039050613bd2565b60006001826020036101000a039050801983511681855116818117865250508694505050505092915050565b81602001516001836000015151011115613c4757613c46826002846020015102613ce4565b5b815180516020818301018381536001820183525050505050565b613c69613def565b836020015184600001515183011115613c9757613c96846002613c90876020015186613cc8565b02613ce4565b5b60006001836101000a0390508451805184818301018684198251161781528582018352505050849150509392505050565b600081831115613cda57829050613cde565b8190505b92915050565b606082600001519050613cf7838361398a565b613d018382613b76565b50505050565b6040518060800160405280600073ffffffffffffffffffffffffffffffffffffffff1681526020016000801916815260200160008152602001600081525090565b60405180608001604052806004905b6060815260200190600190039081613d575790505090565b828054600181600116156101000203166002900490600052602060002090601f016020900481019282601f10613db057805160ff1916838001178555613dde565b82800160010185558215613dde579182015b82811115613ddd578251825591602001919060010190613dc2565b5b509050613deb9190613e09565b5090565b604051806040016040528060608152602001600081525090565b613e2b91905b80821115613e27576000816000905550600101613e0f565b5090565b9056fe5468652070726f6f6620766572696669636174696f6e20686173206661696c6564216265742063616e277420626520686967686572207468616e2062616c616e6365206f6620646170707fb956469c5c9b89840d55b43537e66a98dd4811ea0a27224272c2e5622911e8537a2f8e86a46baec82864e98dd01e9ccc2f8bc5dfc9cbe5a91a290498dd96e450726f7661626c65207175657279207761732073656e742c207374616e64696e6720627920666f722074686520616e737765722e2e2e626574206d75737420626520686967686572207468616e20302e31206574686572a265627a7a72315820824a4faaf6978e199e039abd87c6a3f863f75e41855687ebe9023e54a6fa314964736f6c634300050c0032",
  "source": "import \"./Ownable.sol\";\r\nimport \"./provableAPI.sol\";\r\npragma solidity >= 0.5.12;\r\n\r\ncontract RockPaperScissors is Ownable, usingProvable {\r\n\r\n    //uint balance;\r\n    uint256 constant NUM_RANDOM_BYTES_REQUESTED = 1\r\n    ;\r\n    struct Player {\r\n        address addr;\r\n        bytes32 id;\r\n        uint bet;\r\n        uint amount;\r\n    }\r\n\r\n    mapping (bytes32 => Player) players;\r\n    mapping (address => bool) waitingList;\r\n    mapping (bytes32 => bool) pendingQueries;\r\n    mapping (address => uint256) balances;\r\n\r\n    event LogNewProvableQuery(string description);\r\n    event ProvableQueryProofVerify(string description);\r\n    event LogQueryId(bytes32 queryId);\r\n    event LogRandomNumber(uint number);\r\n    event ResultOfTheGame(bytes32 indexed myid, string description, bool win, uint256 prize);\r\n\r\n    //BET: 0 = \"rock\"\r\n    //     1 = \"paper\"\r\n    //     2 = \"scissors\" \r\n\r\n    constructor() public payable {\r\n        //balance = msg.value;\r\n        provable_setProof(proofType_Ledger);\r\n    }\r\n\r\n    function bet(uint _bet) public payable {\r\n        require(msg.value >= 0.1 ether, \"bet must be higher than 0.1 ether\");\r\n        require(msg.value <= address(this).balance, \"bet can't be higher than balance of dapp\");\r\n        require(waitingList[msg.sender] == false);\r\n        \r\n        //sending a query for random number\r\n        bytes32 queryId = queryRandomNumber();\r\n        emit LogQueryId(queryId);\r\n\r\n        //setting a new bet\r\n        Player memory newPlayer;\r\n        newPlayer.addr = msg.sender;\r\n        newPlayer.id = queryId;\r\n        newPlayer.bet = _bet;\r\n        newPlayer.amount = msg.value;\r\n\r\n        players[queryId] = newPlayer;\r\n    } \r\n\r\n    function queryRandomNumber() private returns(bytes32) {\r\n        uint256 QUERY_EXECUTION_DELAY = 0;\r\n        uint256 GAS_FOR_CALLBACK = 600000;\r\n        bytes32 _queryId = provable_newRandomDSQuery(\r\n            QUERY_EXECUTION_DELAY,\r\n            NUM_RANDOM_BYTES_REQUESTED,\r\n            GAS_FOR_CALLBACK\r\n            );\r\n        pendingQueries[_queryId] = true;\r\n        emit LogNewProvableQuery(\"Provable query was sent, standing by for the answer...\");\r\n        return _queryId;\r\n    }\r\n\r\n    function __callback(bytes32 _myid, string memory _result, bytes memory _proof) public {\r\n        require (msg.sender == provable_cbAddress());\r\n        require (pendingQueries[_myid] == true);\r\n        if (provable_randomDS_proofVerify__returnCode(_myid, _result, _proof) != 0) {\r\n            emit ProvableQueryProofVerify(\"The proof verification has failed!\");\r\n        } else {\r\n            uint randomNumber = uint256(keccak256(abi.encodePacked(_result)))%3;\r\n            _verifyResult(_myid, randomNumber);\r\n            emit LogRandomNumber(randomNumber);\r\n        }  \r\n    }\r\n\r\n    function _verifyResult(bytes32 id, uint256 randomNumber) private {\r\n        //player wins\r\n        if ((players[id].bet == 0 && randomNumber == 2) \r\n        || (players[id].bet == 1 && randomNumber == 0)\r\n        || (players[id].bet == 2 && randomNumber == 1)) {\r\n            balances[players[id].addr] = 2*players[id].amount;\r\n            emit  ResultOfTheGame(id, \"won\", true, balances[players[id].addr]);\r\n        }\r\n        //player looses\r\n        else if ((players[id].bet == 0 && randomNumber == 1) \r\n        || (players[id].bet == 1 && randomNumber == 2)\r\n        || (players[id].bet == 2 && randomNumber == 0)) {\r\n            emit  ResultOfTheGame(id, \"lost\", false, balances[players[id].addr]);    \r\n        }\r\n        //remis\r\n        else {\r\n            //play another game\r\n            queryRandomNumber();\r\n            emit  ResultOfTheGame(id, \"draw\", false, balances[players[id].addr]);\r\n        }\r\n        \r\n        delete pendingQueries[id];\r\n        delete players[id];\r\n    }\r\n\r\n    //function newBet(uint256 _newbet) public {\r\n\r\n    //}\r\n\r\n    function withdrawBalance () external returns(uint256) {\r\n        require(balances[msg.sender] > 0);\r\n        uint256 toTransfer = balances[msg.sender];\r\n\r\n        delete balances[msg.sender];\r\n        delete waitingList[msg.sender];\r\n        msg.sender.transfer(toTransfer);\r\n        assert(balances[msg.sender] == 0);\r\n       \r\n        return toTransfer;\r\n    }\r\n\r\n    function kill() public onlyOwner() {\r\n        selfdestruct(msg.sender);\r\n    }\r\n}",
  "sourcePath": "C:/Users/Admin/Documents/Ethereum course 201/RockPaperScissors/contracts/RockPaperScissors.sol",
  "compiler": {
    "name": "solc",
    "version": "0.5.12+commit.7709ece9.Emscripten.clang"
  },
  "schemaVersion": "3.0.16",
  "updatedAt": "2020-11-13T18:35:59.757Z",
  "devdoc": {
    "methods": {
      "__callback(bytes32,string)": {
        "details": "The following `__callback` functions are just placeholders ideally     meant to be defined in child contract when proofs are used.     The function bodies simply silence compiler warnings."
      }
    }
  },
  "userdoc": {
    "methods": {}
  }
}